{
  "contractName": "MockValidators",
  "abi": [
    {
      "inputs": [
        {
          "internalType": "address[]",
          "name": "vals_",
          "type": "address[]"
        },
        {
          "internalType": "address",
          "name": "proposal_",
          "type": "address"
        }
      ],
      "stateMutability": "nonpayable",
      "type": "constructor"
    },
    {
      "inputs": [],
      "name": "getActiveValidators",
      "outputs": [
        {
          "internalType": "address[]",
          "name": "",
          "type": "address[]"
        }
      ],
      "stateMutability": "view",
      "type": "function"
    },
    {
      "inputs": [
        {
          "internalType": "address",
          "name": "who",
          "type": "address"
        }
      ],
      "name": "isActiveValidator",
      "outputs": [
        {
          "internalType": "bool",
          "name": "",
          "type": "bool"
        }
      ],
      "stateMutability": "view",
      "type": "function"
    },
    {
      "inputs": [
        {
          "internalType": "address",
          "name": "who",
          "type": "address"
        }
      ],
      "name": "setUnPassed",
      "outputs": [],
      "stateMutability": "nonpayable",
      "type": "function"
    },
    {
      "inputs": [
        {
          "internalType": "address",
          "name": "validator",
          "type": "address"
        }
      ],
      "name": "tryReactive",
      "outputs": [
        {
          "internalType": "bool",
          "name": "",
          "type": "bool"
        }
      ],
      "stateMutability": "pure",
      "type": "function"
    }
  ],
  "bytecode": "0x608060405234801561001057600080fd5b506040516104533803806104538339818101604052604081101561003357600080fd5b810190808051604051939291908464010000000082111561005357600080fd5b90830190602082018581111561006857600080fd5b825186602082028301116401000000008211171561008557600080fd5b82525081516020918201928201910280838360005b838110156100b257818101518382015260200161009a565b505050509190910160405250602001519150600090505b82518110156101255760008382815181106100e057fe5b60209081029190910181015182546001808201855560009485529290932090920180546001600160a01b0319166001600160a01b0390931692909217909155016100c9565b50600180546001600160a01b0319166001600160a01b0392909216919091179055506102fd806101566000396000f3fe608060405234801561001057600080fd5b506004361061004c5760003560e01c806340550a1c1461005157806382bd3d921461008b5780639de70258146100b1578063fb71c43014610109575b600080fd5b6100776004803603602081101561006757600080fd5b50356001600160a01b0316610131565b604080519115158252519081900360200190f35b610077600480360360208110156100a157600080fd5b50356001600160a01b031661018e565b6100b9610194565b60408051602080825283518183015283519192839290830191858101910280838360005b838110156100f55781810151838201526020016100dd565b505050509050019250505060405180910390f35b61012f6004803603602081101561011f57600080fd5b50356001600160a01b0316610249565b005b6000805b60005481101561018357826001600160a01b03166000828154811061015657fe5b6000918252602090912001546001600160a01b0316141561017b576001915050610189565b600101610135565b50600090505b919050565b50600190565b600054606090819067ffffffffffffffff811180156101b257600080fd5b506040519080825280602002602001820160405280156101dc578160200160208202803683370190505b50905060005b60005481101561024357600081815481106101f957fe5b9060005260206000200160009054906101000a90046001600160a01b031682828151811061022357fe5b6001600160a01b03909216602092830291909101909101526001016101e2565b50905090565b60015460408051630fb71c4360e41b81526001600160a01b0384811660048301529151919092169163fb71c4309160248083019260209291908290030181600087803b15801561029857600080fd5b505af11580156102ac573d6000803e3d6000fd5b505050506040513d60208110156102c257600080fd5b50505056fea2646970667358221220804cf2ec4b98a70490f84ddd32d78f766dbeda94169e5d1f87308beafa18f0bc64736f6c634300060c0033",
  "immutableReferences": {},
  "source": "// SPDX-License-Identifier: MIT\r\npragma solidity >=0.6.0 <0.8.0;\r\n\r\nimport \"../Proposal.sol\";\r\n\r\ncontract MockValidators {\r\n    address[] vals;\r\n\r\n    Proposal proposal;\r\n\r\n    constructor(address[] memory vals_, address proposal_) public {\r\n        for (uint256 i = 0; i < vals_.length; i++) {\r\n            vals.push(vals_[i]);\r\n        }\r\n\r\n        proposal = Proposal(proposal_);\r\n    }\r\n\r\n    function getActiveValidators() public view returns (address[] memory) {\r\n        address[] memory activeSet = new address[](vals.length);\r\n\r\n        for (uint256 i = 0; i < vals.length; i++) {\r\n            activeSet[i] = vals[i];\r\n        }\r\n        return activeSet;\r\n    }\r\n\r\n    function isActiveValidator(address who) public view returns (bool) {\r\n        for (uint256 i = 0; i < vals.length; i++) {\r\n            if (vals[i] == who) {\r\n                return true;\r\n            }\r\n        }\r\n\r\n        return false;\r\n    }\r\n\r\n    function setUnPassed(address who) public {\r\n        proposal.setUnPassed(who);\r\n    }\r\n\r\n    function tryReactive(address validator) public pure returns (bool) {\r\n        return true;\r\n    }\r\n}\r\n",
  "sourcePath": "/mnt/d/GitHub/asc-system-contracts/contracts/mock/MockValidators.sol",
  "compiler": {
    "name": "solc",
    "version": "0.6.12+commit.27d51765.Emscripten.clang"
  },
  "schemaVersion": "3.4.2",
  "updatedAt": "2021-08-12T05:12:21.390Z",
  "devdoc": {
    "kind": "dev",
    "methods": {},
    "version": 1
  },
  "userdoc": {
    "kind": "user",
    "methods": {},
    "version": 1
  }
}