{
  "contractName": "Params",
  "abi": [
    {
      "inputs": [],
      "name": "MaxValidators",
      "outputs": [
        {
          "internalType": "uint16",
          "name": "",
          "type": "uint16"
        }
      ],
      "stateMutability": "view",
      "type": "function"
    },
    {
      "inputs": [],
      "name": "MinimalStakingCoin",
      "outputs": [
        {
          "internalType": "uint256",
          "name": "",
          "type": "uint256"
        }
      ],
      "stateMutability": "view",
      "type": "function"
    },
    {
      "inputs": [],
      "name": "ProposalContractAddr",
      "outputs": [
        {
          "internalType": "address",
          "name": "",
          "type": "address"
        }
      ],
      "stateMutability": "view",
      "type": "function"
    },
    {
      "inputs": [],
      "name": "PunishContractAddr",
      "outputs": [
        {
          "internalType": "address",
          "name": "",
          "type": "address"
        }
      ],
      "stateMutability": "view",
      "type": "function"
    },
    {
      "inputs": [],
      "name": "StakingLockPeriod",
      "outputs": [
        {
          "internalType": "uint64",
          "name": "",
          "type": "uint64"
        }
      ],
      "stateMutability": "view",
      "type": "function"
    },
    {
      "inputs": [],
      "name": "ValidatorContractAddr",
      "outputs": [
        {
          "internalType": "address",
          "name": "",
          "type": "address"
        }
      ],
      "stateMutability": "view",
      "type": "function"
    },
    {
      "inputs": [],
      "name": "WithdrawProfitPeriod",
      "outputs": [
        {
          "internalType": "uint64",
          "name": "",
          "type": "uint64"
        }
      ],
      "stateMutability": "view",
      "type": "function"
    },
    {
      "inputs": [],
      "name": "initialized",
      "outputs": [
        {
          "internalType": "bool",
          "name": "",
          "type": "bool"
        }
      ],
      "stateMutability": "view",
      "type": "function"
    }
  ],
  "bytecode": "0x608060405234801561001057600080fd5b506101a3806100206000396000f3fe608060405234801561001057600080fd5b50600436106100885760003560e01c8063be6456921161005b578063be645692146100dd578063c967f90f146100f7578063db78dd2814610116578063efd8d8e21461011657610088565b8063158ef93e1461008d5780631b5e358c146100a95780633a061bd3146100cd57806360ae528c146100d5575b600080fd5b61009561013b565b604080519115158252519081900360200190f35b6100b1610144565b604080516001600160a01b039092168252519081900360200190f35b6100b161014a565b6100b1610150565b6100e5610156565b60408051918252519081900360200190f35b6100ff610163565b6040805161ffff9092168252519081900360200190f35b61011e610168565b6040805167ffffffffffffffff9092168252519081900360200190f35b60005460ff1681565b61f00181565b61f00081565b61f00281565b6801bc16d674ec80000081565b601581565b60648156fea2646970667358221220e220714646bf8646801fd5f1981d9b16ef96160ac787dafebf47e65d1d8f1e6264736f6c634300060c0033",
  "immutableReferences": {},
  "source": "// SPDX-License-Identifier: MIT\r\npragma solidity >=0.6.0 <0.8.0;\r\n\r\ncontract Params {\r\n    bool public initialized ;\r\n\r\n    \r\n    // System contracts\r\n    address\r\n        public constant ValidatorContractAddr = 0x000000000000000000000000000000000000f000;\r\n    address\r\n        public constant PunishContractAddr = 0x000000000000000000000000000000000000F001;\r\n    address\r\n        public constant ProposalContractAddr = 0x000000000000000000000000000000000000F002;\r\n\r\n    \r\n    // System params\r\n    uint16 constant public MaxValidators = 21;\r\n    // Validator have to wait StakingLockPeriod blocks to withdraw staking\r\n    uint64 constant public StakingLockPeriod = 100;\r\n    // Validator have to wait WithdrawProfitPeriod blocks to withdraw his profits\r\n    uint64 constant public WithdrawProfitPeriod = 100;\r\n    uint256 constant public MinimalStakingCoin = 32 ether;\r\n\r\n    \r\n    modifier onlyMiner() {\r\n        require(\r\n            msg.sender == block.coinbase,\r\n            \"Miner only\"\r\n        );\r\n        _;\r\n    }\r\n\r\n    \r\n    modifier onlyNotInitialized() {\r\n        require(!initialized, \"Already initialized\");\r\n        _;\r\n    }\r\n\r\n    modifier onlyInitialized() {\r\n        require(initialized, \"Not init yet\");\r\n        _;\r\n    }\r\n\r\n    modifier onlyPunishContract() {\r\n        require(msg.sender == PunishContractAddr, \"Punish contract only\");\r\n        _;\r\n    }\r\n\r\n    modifier onlyBlockEpoch(uint256 epoch) {\r\n        require(block.number % epoch == 0, \"Block epoch only\");\r\n        _;\r\n    }\r\n\r\n    modifier onlyValidatorsContract() {\r\n        require(\r\n            msg.sender == ValidatorContractAddr,\r\n            \"Validators contract only\"\r\n        );\r\n        _;\r\n    }\r\n\r\n    modifier onlyProposalContract() {\r\n        require(\r\n            msg.sender == ProposalContractAddr,\r\n            \"Proposal contract only\"\r\n        );\r\n        _;\r\n    }\r\n\r\n    \r\n}\r\n",
  "sourcePath": "/mnt/d/GitHub/asc-system-contracts/contracts/Params.sol",
  "compiler": {
    "name": "solc",
    "version": "0.6.12+commit.27d51765.Emscripten.clang"
  },
  "schemaVersion": "3.4.2",
  "updatedAt": "2021-08-12T05:12:20.890Z",
  "devdoc": {
    "kind": "dev",
    "methods": {},
    "version": 1
  },
  "userdoc": {
    "kind": "user",
    "methods": {},
    "version": 1
  }
}