{
  "contractName": "Proposal",
  "abi": [
    {
      "anonymous": false,
      "inputs": [
        {
          "indexed": true,
          "internalType": "bytes32",
          "name": "id",
          "type": "bytes32"
        },
        {
          "indexed": true,
          "internalType": "address",
          "name": "proposer",
          "type": "address"
        },
        {
          "indexed": true,
          "internalType": "address",
          "name": "dst",
          "type": "address"
        },
        {
          "indexed": false,
          "internalType": "uint256",
          "name": "time",
          "type": "uint256"
        }
      ],
      "name": "LogCreateProposal",
      "type": "event"
    },
    {
      "anonymous": false,
      "inputs": [
        {
          "indexed": true,
          "internalType": "bytes32",
          "name": "id",
          "type": "bytes32"
        },
        {
          "indexed": true,
          "internalType": "address",
          "name": "dst",
          "type": "address"
        },
        {
          "indexed": false,
          "internalType": "uint256",
          "name": "time",
          "type": "uint256"
        }
      ],
      "name": "LogPassProposal",
      "type": "event"
    },
    {
      "anonymous": false,
      "inputs": [
        {
          "indexed": true,
          "internalType": "bytes32",
          "name": "id",
          "type": "bytes32"
        },
        {
          "indexed": true,
          "internalType": "address",
          "name": "dst",
          "type": "address"
        },
        {
          "indexed": false,
          "internalType": "uint256",
          "name": "time",
          "type": "uint256"
        }
      ],
      "name": "LogRejectProposal",
      "type": "event"
    },
    {
      "anonymous": false,
      "inputs": [
        {
          "indexed": true,
          "internalType": "address",
          "name": "val",
          "type": "address"
        },
        {
          "indexed": false,
          "internalType": "uint256",
          "name": "time",
          "type": "uint256"
        }
      ],
      "name": "LogSetUnPassed",
      "type": "event"
    },
    {
      "anonymous": false,
      "inputs": [
        {
          "indexed": true,
          "internalType": "bytes32",
          "name": "id",
          "type": "bytes32"
        },
        {
          "indexed": true,
          "internalType": "address",
          "name": "voter",
          "type": "address"
        },
        {
          "indexed": false,
          "internalType": "bool",
          "name": "auth",
          "type": "bool"
        },
        {
          "indexed": false,
          "internalType": "uint256",
          "name": "time",
          "type": "uint256"
        }
      ],
      "name": "LogVote",
      "type": "event"
    },
    {
      "inputs": [],
      "name": "MaxValidators",
      "outputs": [
        {
          "internalType": "uint16",
          "name": "",
          "type": "uint16"
        }
      ],
      "stateMutability": "view",
      "type": "function"
    },
    {
      "inputs": [],
      "name": "MinimalStakingCoin",
      "outputs": [
        {
          "internalType": "uint256",
          "name": "",
          "type": "uint256"
        }
      ],
      "stateMutability": "view",
      "type": "function"
    },
    {
      "inputs": [],
      "name": "ProposalContractAddr",
      "outputs": [
        {
          "internalType": "address",
          "name": "",
          "type": "address"
        }
      ],
      "stateMutability": "view",
      "type": "function"
    },
    {
      "inputs": [],
      "name": "PunishContractAddr",
      "outputs": [
        {
          "internalType": "address",
          "name": "",
          "type": "address"
        }
      ],
      "stateMutability": "view",
      "type": "function"
    },
    {
      "inputs": [],
      "name": "StakingLockPeriod",
      "outputs": [
        {
          "internalType": "uint64",
          "name": "",
          "type": "uint64"
        }
      ],
      "stateMutability": "view",
      "type": "function"
    },
    {
      "inputs": [],
      "name": "ValidatorContractAddr",
      "outputs": [
        {
          "internalType": "address",
          "name": "",
          "type": "address"
        }
      ],
      "stateMutability": "view",
      "type": "function"
    },
    {
      "inputs": [],
      "name": "WithdrawProfitPeriod",
      "outputs": [
        {
          "internalType": "uint64",
          "name": "",
          "type": "uint64"
        }
      ],
      "stateMutability": "view",
      "type": "function"
    },
    {
      "inputs": [],
      "name": "initialized",
      "outputs": [
        {
          "internalType": "bool",
          "name": "",
          "type": "bool"
        }
      ],
      "stateMutability": "view",
      "type": "function"
    },
    {
      "inputs": [
        {
          "internalType": "address",
          "name": "",
          "type": "address"
        }
      ],
      "name": "pass",
      "outputs": [
        {
          "internalType": "bool",
          "name": "",
          "type": "bool"
        }
      ],
      "stateMutability": "view",
      "type": "function"
    },
    {
      "inputs": [],
      "name": "proposalLastingPeriod",
      "outputs": [
        {
          "internalType": "uint256",
          "name": "",
          "type": "uint256"
        }
      ],
      "stateMutability": "view",
      "type": "function"
    },
    {
      "inputs": [
        {
          "internalType": "bytes32",
          "name": "",
          "type": "bytes32"
        }
      ],
      "name": "proposals",
      "outputs": [
        {
          "internalType": "address",
          "name": "proposer",
          "type": "address"
        },
        {
          "internalType": "address",
          "name": "dst",
          "type": "address"
        },
        {
          "internalType": "string",
          "name": "details",
          "type": "string"
        },
        {
          "internalType": "uint256",
          "name": "createTime",
          "type": "uint256"
        },
        {
          "internalType": "uint16",
          "name": "agree",
          "type": "uint16"
        },
        {
          "internalType": "uint16",
          "name": "reject",
          "type": "uint16"
        },
        {
          "internalType": "bool",
          "name": "resultExist",
          "type": "bool"
        }
      ],
      "stateMutability": "view",
      "type": "function"
    },
    {
      "inputs": [
        {
          "internalType": "address",
          "name": "",
          "type": "address"
        },
        {
          "internalType": "bytes32",
          "name": "",
          "type": "bytes32"
        }
      ],
      "name": "votes",
      "outputs": [
        {
          "internalType": "address",
          "name": "voter",
          "type": "address"
        },
        {
          "internalType": "uint256",
          "name": "voteTime",
          "type": "uint256"
        },
        {
          "internalType": "bool",
          "name": "auth",
          "type": "bool"
        }
      ],
      "stateMutability": "view",
      "type": "function"
    },
    {
      "inputs": [
        {
          "internalType": "address[]",
          "name": "vals",
          "type": "address[]"
        }
      ],
      "name": "initialize",
      "outputs": [],
      "stateMutability": "nonpayable",
      "type": "function"
    },
    {
      "inputs": [
        {
          "internalType": "address",
          "name": "dst",
          "type": "address"
        },
        {
          "internalType": "string",
          "name": "details",
          "type": "string"
        }
      ],
      "name": "createProposal",
      "outputs": [
        {
          "internalType": "bool",
          "name": "",
          "type": "bool"
        }
      ],
      "stateMutability": "nonpayable",
      "type": "function"
    },
    {
      "inputs": [
        {
          "internalType": "bytes32",
          "name": "id",
          "type": "bytes32"
        },
        {
          "internalType": "bool",
          "name": "auth",
          "type": "bool"
        }
      ],
      "name": "voteProposal",
      "outputs": [
        {
          "internalType": "bool",
          "name": "",
          "type": "bool"
        }
      ],
      "stateMutability": "nonpayable",
      "type": "function"
    },
    {
      "inputs": [
        {
          "internalType": "address",
          "name": "val",
          "type": "address"
        }
      ],
      "name": "setUnPassed",
      "outputs": [
        {
          "internalType": "bool",
          "name": "",
          "type": "bool"
        }
      ],
      "stateMutability": "nonpayable",
      "type": "function"
    }
  ],
  "bytecode": "0x608060405234801561001057600080fd5b506112f3806100206000396000f3fe608060405234801561001057600080fd5b50600436106101005760003560e01c8063a224cee711610097578063db78dd2811610066578063db78dd28146103f8578063e823c8141461041d578063efd8d8e2146103f8578063fb71c4301461042557610100565b8063a224cee71461032a578063a4c4d9221461039a578063be645692146103bf578063c967f90f146103d957610100565b806332ed5b12116100d357806332ed5b12146102195780633a061bd3146102f457806360ae528c146102fc57806382c4b3b21461030457610100565b8063158ef93e146101055780631b5e358c146101215780631db5ade8146101455780631f4f7d291461019b575b600080fd5b61010d61044b565b604080519115158252519081900360200190f35b610129610454565b604080516001600160a01b039092168252519081900360200190f35b6101716004803603604081101561015b57600080fd5b506001600160a01b03813516906020013561045a565b604080516001600160a01b0390941684526020840192909252151582820152519081900360600190f35b61010d600480360360408110156101b157600080fd5b6001600160a01b038235169190810190604081016020820135600160201b8111156101db57600080fd5b8201836020820111156101ed57600080fd5b803590602001918460018302840111600160201b8311171561020e57600080fd5b509092509050610493565b6102366004803603602081101561022f57600080fd5b503561075a565b60405180886001600160a01b03168152602001876001600160a01b03168152602001806020018681526020018561ffff1681526020018461ffff1681526020018315158152602001828103825287818151815260200191508051906020019080838360005b838110156102b357818101518382015260200161029b565b50505050905090810190601f1680156102e05780820380516001836020036101000a031916815260200191505b509850505050505050505060405180910390f35b610129610836565b61012961083c565b61010d6004803603602081101561031a57600080fd5b50356001600160a01b0316610842565b6103986004803603602081101561034057600080fd5b810190602081018135600160201b81111561035a57600080fd5b82018360208201111561036c57600080fd5b803590602001918460208302840111600160201b8311171561038d57600080fd5b509092509050610857565b005b61010d600480360360408110156103b057600080fd5b5080359060200135151561099a565b6103c76110ce565b60408051918252519081900360200190f35b6103e16110db565b6040805161ffff9092168252519081900360200190f35b6104006110e0565b6040805167ffffffffffffffff9092168252519081900360200190f35b6103c76110e5565b61010d6004803603602081101561043b57600080fd5b50356001600160a01b03166110ec565b60005460ff1681565b61f00181565b60036020908152600092835260408084209091529082529020805460018201546002909201546001600160a01b03909116919060ff1683565b6001600160a01b03831660009081526001602052604081205460ff16156104eb5760405162461bcd60e51b81526004018080602001828103825260298152602001806112726029913960400191505060405180910390fd5b6000338585854260405160200180866001600160a01b031660601b8152601401856001600160a01b031660601b81526014018484808284379190910192835250506040805180830381526020928301909152805191012094505050610bb885111591506105949050576040805162461bcd60e51b815260206004820152601060248201526f44657461696c7320746f6f206c6f6e6760801b604482015290519081900360640190fd5b600081815260026020526040902060030154156105f8576040805162461bcd60e51b815260206004820152601760248201527f50726f706f73616c20616c726561647920657869737473000000000000000000604482015290519081900360640190fd5b6106006111a1565b3381526001600160a01b03861660208083019190915260408051601f8701839004830281018301909152858152908690869081908401838280828437600092018290525060408087019586524260608801528782526002602081815291909220875181546001600160a01b039182166001600160a01b0319918216178355838a015160018401805491909316911617905595518051889796506106aa9550928601935001906111de565b506060820151600382015560808201516004909101805460a084015160c09094015161ffff1990911661ffff9384161763ffff000019166201000093909416929092029290921764ff000000001916600160201b911515919091021790556040805142815290516001600160a01b03881691339185917fc10f2f4d53a0e342536c6af3cce9c6ee25c32dbb323521ce0e1d4494a3e362e8916020918190039190910190a450600195945050505050565b600260208181526000928352604092839020805460018083015483860180548851601f600019958316156101000295909501909116979097049283018690048602870186019097528186526001600160a01b039283169692169492938301828280156108075780601f106107dc57610100808354040283529160200191610807565b820191906000526020600020905b8154815290600101906020018083116107ea57829003601f168201915b50505050600383015460049093015491929161ffff80821692506201000082041690600160201b900460ff1687565b61f00081565b61f00281565b60016020526000908152604090205460ff1681565b60005460ff16156108a5576040805162461bcd60e51b8152602060048201526013602482015272105b1c9958591e481a5b9a5d1a585b1a5e9959606a1b604482015290519081900360640190fd5b600480546001600160a01b03191661f00017905560005b818110156109885760008383838181106108d257fe5b905060200201356001600160a01b03166001600160a01b0316141561093e576040805162461bcd60e51b815260206004820152601960248201527f496e76616c69642076616c696461746f72206164647265737300000000000000604482015290519081900360640190fd5b600180600085858581811061094f57fe5b602090810292909201356001600160a01b0316835250810191909152604001600020805460ff19169115159190911790556001016108bc565b50506000805460ff1916600117905550565b6004805460408051631015428760e21b81523393810193909352516000926001600160a01b03909216916340550a1c916024808301926020929190829003018186803b1580156109e957600080fd5b505afa1580156109fd573d6000803e3d6000fd5b505050506040513d6020811015610a1357600080fd5b5051610a57576040805162461bcd60e51b815260206004820152600e60248201526d56616c696461746f72206f6e6c7960901b604482015290519081900360640190fd5b600083815260026020526040902060030154610aaf576040805162461bcd60e51b8152602060048201526012602482015271141c9bdc1bdcd85b081b9bdd08195e1a5cdd60721b604482015290519081900360640190fd5b33600090815260036020908152604080832086845290915290206001015415610b095760405162461bcd60e51b815260040180806020018281038252602381526020018061129b6023913960400191505060405180910390fd5b60008381526002602052604090206003015462093a80014210610b66576040805162461bcd60e51b815260206004820152601060248201526f141c9bdc1bdcd85b08195e1c1a5c995960821b604482015290519081900360640190fd5b336000818152600360209081526040808320878452825291829020426001820181905581546001600160a01b031916851782556002909101805460ff1916871515908117909155835190815291820152815186927f6c59bda68cac318717c60c7c9635a78a0f0613f9887cc18a7157f5745a86d14e928290030190a38115610c14576000838152600260205260409020600401805461ffff8082166001011661ffff19909116179055610c48565b60008381526002602052604090206004018054600161ffff62010000808404821692909201160263ffff0000199091161790555b60008381526002602090815260408083206001908101546001600160a01b0316845290915290205460ff1680610c965750600083815260026020526040902060040154600160201b900460ff165b15610ca3575060016110c8565b6002600460009054906101000a90046001600160a01b03166001600160a01b0316639de702586040518163ffffffff1660e01b815260040160006040518083038186803b158015610cf357600080fd5b505afa158015610d07573d6000803e3d6000fd5b505050506040513d6000823e601f3d908101601f191682016040526020811015610d3057600080fd5b8101908080516040519392919084600160201b821115610d4f57600080fd5b908301906020820185811115610d6457600080fd5b82518660208202830111600160201b82111715610d8057600080fd5b82525081516020918201928201910280838360005b83811015610dad578181015183820152602001610d95565b505050509050016040525050505181610dc257fe5b60008581526002602052604090206004015491900460010161ffff90911610610f08576000838152600260208181526040808420600181810180546001600160a01b039081168852828652848820805460ff19169093179092558987529484526004918201805464ff000000001916600160201b17905581549454835163415e9ec960e11b815290821692810192909252915193909116936382bd3d9293602480840194939192918390030190829087803b158015610e8057600080fd5b505af1158015610e94573d6000803e3d6000fd5b505050506040513d6020811015610eaa57600080fd5b505060008381526002602090815260409182902060010154825142815292516001600160a01b039091169286927fc9d96d61eb62031865c523ae107f3c22f5ed445af237636bcd88bea1705c70d592918290030190a35060016110c8565b6002600460009054906101000a90046001600160a01b03166001600160a01b0316639de702586040518163ffffffff1660e01b815260040160006040518083038186803b158015610f5857600080fd5b505afa158015610f6c573d6000803e3d6000fd5b505050506040513d6000823e601f3d908101601f191682016040526020811015610f9557600080fd5b8101908080516040519392919084600160201b821115610fb457600080fd5b908301906020820185811115610fc957600080fd5b82518660208202830111600160201b82111715610fe557600080fd5b82525081516020918201928201910280838360005b83811015611012578181015183820152602001610ffa565b50505050905001604052505050518161102757fe5b046001016002600085815260200190815260200160002060040160029054906101000a900461ffff1661ffff16106110c45760008381526002602090815260409182902060048101805464ff000000001916600160201b17905560010154825142815292516001600160a01b039091169286927fec955d77e6e7d74e18b1c91977ef0f6fd5a6d02a28d1979686339fe69399782592918290030190a35b5060015b92915050565b6801bc16d674ec80000081565b601581565b606481565b62093a8081565b60003361f00014611144576040805162461bcd60e51b815260206004820152601860248201527f56616c696461746f727320636f6e7472616374206f6e6c790000000000000000604482015290519081900360640190fd5b6001600160a01b038216600081815260016020908152604091829020805460ff19169055815142815291517f4b6d81f9601252010f1c1bcfacb86729b7e7898d2abc627bcefd1991dddc395e9281900390910190a2506001919050565b6040805160e08101825260008082526020820181905260609282018390529181018290526080810182905260a0810182905260c081019190915290565b828054600181600116156101000203166002900490600052602060002090601f016020900481019282601f1061121f57805160ff191683800117855561124c565b8280016001018555821561124c579182015b8281111561124c578251825591602001919060010190611231565b5061125892915061125c565b5090565b5b80821115611258576000815560010161125d56fe44737420616c7265616479207061737365642c20596f752063616e207374617274207374616b696e67596f752063616e277420766f746520666f7220612070726f706f73616c207477696365a2646970667358221220799a3eaad85e96a9e73cf1940435dc16b1cc12338bdc901ba069d856b5d188d364736f6c634300060c0033",
  "immutableReferences": {},
  "source": "// SPDX-License-Identifier: MIT\r\npragma solidity >=0.6.0 <0.8.0;\r\n\r\nimport \"./Params.sol\";\r\nimport \"./Validators.sol\";\r\n\r\ncontract Proposal is Params {\r\n    // How long a proposal will exist\r\n    uint256 public constant proposalLastingPeriod = 7 days;\r\n\r\n    // record\r\n    mapping(address => bool) public pass;\r\n\r\n    struct ProposalInfo {\r\n        // who propose this proposal\r\n        address proposer;\r\n        // propose who to be a validator\r\n        address dst;\r\n        // optional detail info of proposal\r\n        string details;\r\n        // time create proposal\r\n        uint256 createTime;\r\n        //\r\n        // vote info\r\n        //\r\n        // number agree this proposal\r\n        uint16 agree;\r\n        // number reject this proposal\r\n        uint16 reject;\r\n        // means you can get proposal of current vote.\r\n        bool resultExist;\r\n    }\r\n\r\n    struct VoteInfo {\r\n        address voter;\r\n        uint256 voteTime;\r\n        bool auth;\r\n    }\r\n\r\n    mapping(bytes32 => ProposalInfo) public proposals;\r\n    mapping(address => mapping(bytes32 => VoteInfo)) public votes;\r\n\r\n    Validators validators;\r\n\r\n    event LogCreateProposal(\r\n        bytes32 indexed id,\r\n        address indexed proposer,\r\n        address indexed dst,\r\n        uint256 time\r\n    );\r\n    event LogVote(\r\n        bytes32 indexed id,\r\n        address indexed voter,\r\n        bool auth,\r\n        uint256 time\r\n    );\r\n    event LogPassProposal(\r\n        bytes32 indexed id,\r\n        address indexed dst,\r\n        uint256 time\r\n    );\r\n    event LogRejectProposal(\r\n        bytes32 indexed id,\r\n        address indexed dst,\r\n        uint256 time\r\n    );\r\n    event LogSetUnPassed(address indexed val, uint256 time);\r\n\r\n    modifier onlyValidator() {\r\n        require(validators.isActiveValidator(msg.sender), \"Validator only\");\r\n        _;\r\n    }\r\n\r\n    function initialize(address[] calldata vals) external onlyNotInitialized {\r\n        validators = Validators(ValidatorContractAddr);\r\n\r\n        for (uint256 i = 0; i < vals.length; i++) {\r\n            require(vals[i] != address(0), \"Invalid validator address\");\r\n            pass[vals[i]] = true;\r\n        }\r\n\r\n        initialized = true;\r\n    }\r\n\r\n    function createProposal(address dst, string calldata details)\r\n        external\r\n        returns (bool)\r\n    {\r\n        require(!pass[dst], \"Dst already passed, You can start staking\"); \r\n\r\n        // generate proposal id\r\n        bytes32 id = keccak256(\r\n            abi.encodePacked(msg.sender, dst, details, block.timestamp)\r\n        );\r\n        require(bytes(details).length <= 3000, \"Details too long\");\r\n        require(proposals[id].createTime == 0, \"Proposal already exists\");\r\n\r\n        ProposalInfo memory proposal;\r\n        proposal.proposer = msg.sender;\r\n        proposal.dst = dst;\r\n        proposal.details = details;\r\n        proposal.createTime = block.timestamp;\r\n\r\n        proposals[id] = proposal;\r\n        emit LogCreateProposal(id, msg.sender, dst, block.timestamp);\r\n        return true;\r\n    }\r\n\r\n    function voteProposal(bytes32 id, bool auth)\r\n        external\r\n        onlyValidator\r\n        returns (bool)\r\n    {\r\n        require(proposals[id].createTime != 0, \"Proposal not exist\");\r\n        require(\r\n            votes[msg.sender][id].voteTime == 0,\r\n            \"You can't vote for a proposal twice\"\r\n        );\r\n        require(\r\n            block.timestamp < proposals[id].createTime + proposalLastingPeriod,\r\n            \"Proposal expired\"\r\n        );\r\n\r\n        votes[msg.sender][id].voteTime = block.timestamp;\r\n        votes[msg.sender][id].voter = msg.sender;\r\n        votes[msg.sender][id].auth = auth;\r\n        emit LogVote(id, msg.sender, auth, block.timestamp);\r\n\r\n        // update dst status if proposal is passed\r\n        if (auth) {\r\n            proposals[id].agree = proposals[id].agree + 1;\r\n        } else {\r\n            proposals[id].reject = proposals[id].reject + 1;\r\n        }\r\n\r\n        if (pass[proposals[id].dst] || proposals[id].resultExist) {\r\n            // do nothing if dst already passed or rejected.\r\n            return true;\r\n        }\r\n\r\n        if (\r\n            proposals[id].agree >=\r\n            validators.getActiveValidators().length / 2 + 1\r\n        ) {\r\n            pass[proposals[id].dst] = true;\r\n            proposals[id].resultExist = true;\r\n\r\n            // try to reactive validator if it isn't the first time\r\n            validators.tryReactive(proposals[id].dst);\r\n            emit LogPassProposal(id, proposals[id].dst, block.timestamp);\r\n\r\n            return true;\r\n        }\r\n\r\n        if (\r\n            proposals[id].reject >=\r\n            validators.getActiveValidators().length / 2 + 1\r\n        ) {\r\n            proposals[id].resultExist = true;\r\n            emit LogRejectProposal(id, proposals[id].dst, block.timestamp);\r\n        }\r\n\r\n        return true;\r\n    }\r\n\r\n    function setUnPassed(address val)\r\n        external\r\n        onlyValidatorsContract\r\n        returns (bool)\r\n    {\r\n        // set validator unpass\r\n        pass[val] = false;\r\n\r\n        emit LogSetUnPassed(val, block.timestamp);\r\n        return true;\r\n    }\r\n}\r\n",
  "sourcePath": "/mnt/d/GitHub/asc-system-contracts/contracts/Proposal.sol",
  "compiler": {
    "name": "solc",
    "version": "0.6.12+commit.27d51765.Emscripten.clang"
  },
  "schemaVersion": "3.4.2",
  "updatedAt": "2021-08-12T05:12:20.919Z",
  "devdoc": {
    "kind": "dev",
    "methods": {},
    "version": 1
  },
  "userdoc": {
    "kind": "user",
    "methods": {},
    "version": 1
  }
}