{
  "contractName": "Punish",
  "abi": [
    {
      "anonymous": false,
      "inputs": [],
      "name": "LogDecreaseMissedBlocksCounter",
      "type": "event"
    },
    {
      "anonymous": false,
      "inputs": [
        {
          "indexed": true,
          "internalType": "address",
          "name": "val",
          "type": "address"
        },
        {
          "indexed": false,
          "internalType": "uint256",
          "name": "time",
          "type": "uint256"
        }
      ],
      "name": "LogPunishValidator",
      "type": "event"
    },
    {
      "inputs": [],
      "name": "MaxValidators",
      "outputs": [
        {
          "internalType": "uint16",
          "name": "",
          "type": "uint16"
        }
      ],
      "stateMutability": "view",
      "type": "function"
    },
    {
      "inputs": [],
      "name": "MinimalStakingCoin",
      "outputs": [
        {
          "internalType": "uint256",
          "name": "",
          "type": "uint256"
        }
      ],
      "stateMutability": "view",
      "type": "function"
    },
    {
      "inputs": [],
      "name": "ProposalContractAddr",
      "outputs": [
        {
          "internalType": "address",
          "name": "",
          "type": "address"
        }
      ],
      "stateMutability": "view",
      "type": "function"
    },
    {
      "inputs": [],
      "name": "PunishContractAddr",
      "outputs": [
        {
          "internalType": "address",
          "name": "",
          "type": "address"
        }
      ],
      "stateMutability": "view",
      "type": "function"
    },
    {
      "inputs": [],
      "name": "StakingLockPeriod",
      "outputs": [
        {
          "internalType": "uint64",
          "name": "",
          "type": "uint64"
        }
      ],
      "stateMutability": "view",
      "type": "function"
    },
    {
      "inputs": [],
      "name": "ValidatorContractAddr",
      "outputs": [
        {
          "internalType": "address",
          "name": "",
          "type": "address"
        }
      ],
      "stateMutability": "view",
      "type": "function"
    },
    {
      "inputs": [],
      "name": "WithdrawProfitPeriod",
      "outputs": [
        {
          "internalType": "uint64",
          "name": "",
          "type": "uint64"
        }
      ],
      "stateMutability": "view",
      "type": "function"
    },
    {
      "inputs": [],
      "name": "decreaseRate",
      "outputs": [
        {
          "internalType": "uint16",
          "name": "",
          "type": "uint16"
        }
      ],
      "stateMutability": "view",
      "type": "function"
    },
    {
      "inputs": [],
      "name": "initialized",
      "outputs": [
        {
          "internalType": "bool",
          "name": "",
          "type": "bool"
        }
      ],
      "stateMutability": "view",
      "type": "function"
    },
    {
      "inputs": [],
      "name": "punishThreshold",
      "outputs": [
        {
          "internalType": "uint16",
          "name": "",
          "type": "uint16"
        }
      ],
      "stateMutability": "view",
      "type": "function"
    },
    {
      "inputs": [
        {
          "internalType": "uint256",
          "name": "",
          "type": "uint256"
        }
      ],
      "name": "punishValidators",
      "outputs": [
        {
          "internalType": "address",
          "name": "",
          "type": "address"
        }
      ],
      "stateMutability": "view",
      "type": "function"
    },
    {
      "inputs": [],
      "name": "removeThreshold",
      "outputs": [
        {
          "internalType": "uint16",
          "name": "",
          "type": "uint16"
        }
      ],
      "stateMutability": "view",
      "type": "function"
    },
    {
      "inputs": [],
      "name": "initialize",
      "outputs": [],
      "stateMutability": "nonpayable",
      "type": "function"
    },
    {
      "inputs": [
        {
          "internalType": "address",
          "name": "val",
          "type": "address"
        }
      ],
      "name": "punish",
      "outputs": [],
      "stateMutability": "nonpayable",
      "type": "function"
    },
    {
      "inputs": [
        {
          "internalType": "uint256",
          "name": "epoch",
          "type": "uint256"
        }
      ],
      "name": "decreaseMissedBlocksCounter",
      "outputs": [],
      "stateMutability": "nonpayable",
      "type": "function"
    },
    {
      "inputs": [
        {
          "internalType": "address",
          "name": "val",
          "type": "address"
        }
      ],
      "name": "cleanPunishRecord",
      "outputs": [
        {
          "internalType": "bool",
          "name": "",
          "type": "bool"
        }
      ],
      "stateMutability": "nonpayable",
      "type": "function"
    },
    {
      "inputs": [],
      "name": "getPunishValidatorsLen",
      "outputs": [
        {
          "internalType": "uint256",
          "name": "",
          "type": "uint256"
        }
      ],
      "stateMutability": "view",
      "type": "function"
    },
    {
      "inputs": [
        {
          "internalType": "address",
          "name": "val",
          "type": "address"
        }
      ],
      "name": "getPunishRecord",
      "outputs": [
        {
          "internalType": "uint256",
          "name": "",
          "type": "uint256"
        }
      ],
      "stateMutability": "view",
      "type": "function"
    }
  ],
  "bytecode": "0x608060405234801561001057600080fd5b50610b8c806100206000396000f3fe608060405234801561001057600080fd5b50600436106101165760003560e01c8063be645692116100a2578063db78dd2811610071578063db78dd2814610227578063e0d8ea531461024c578063ea7221a114610254578063efd8d8e214610227578063f62af26c1461027a57610116565b8063be645692146101fa578063c967f90f14610202578063cb1ea7251461015b578063d93d2cb91461020a57610116565b80633a061bd3116100e95780633a061bd3146101b257806344c1aa99146101ba57806360ae528c146101c257806363e1d451146101ca5780638129fc1c146101f057610116565b8063158ef93e1461011b5780631b5e358c146101375780632897183d1461015b57806332f3c17f1461017a575b600080fd5b610123610297565b604080519115158252519081900360200190f35b61013f6102a0565b604080516001600160a01b039092168252519081900360200190f35b6101636102a6565b6040805161ffff9092168252519081900360200190f35b6101a06004803603602081101561019057600080fd5b50356001600160a01b03166102ab565b60408051918252519081900360200190f35b61013f6102c6565b6101636102cc565b61013f6102d1565b610123600480360360208110156101e057600080fd5b50356001600160a01b03166102d7565b6101f8610505565b005b6101a0610574565b610163610581565b6101f86004803603602081101561022057600080fd5b5035610586565b61022f61081f565b6040805167ffffffffffffffff9092168252519081900360200190f35b6101a0610824565b6101f86004803603602081101561026a57600080fd5b50356001600160a01b031661082a565b61013f6004803603602081101561029057600080fd5b5035610b2f565b60005460ff1681565b61f00181565b601881565b6001600160a01b031660009081526001602052604090205490565b61f00081565b603081565b61f00281565b6000805460ff1661031e576040805162461bcd60e51b815260206004820152600c60248201526b139bdd081a5b9a5d081e595d60a21b604482015290519081900360640190fd5b3361f00014610374576040805162461bcd60e51b815260206004820152601860248201527f56616c696461746f727320636f6e7472616374206f6e6c790000000000000000604482015290519081900360640190fd5b6001600160a01b038216600090815260016020526040902054156103ac576001600160a01b0382166000908152600160205260408120555b6001600160a01b03821660009081526001602052604090206002015460ff1680156103d8575060025415155b156104fd576002546001600160a01b03831660009081526001602081905260409091200154600019909101146104a3576002805460009190600019810190811061041e57fe5b60009182526020808320909101546001600160a01b038681168452600192839052604090932090910154600280549390921693508392811061045c57fe5b600091825260208083209190910180546001600160a01b0319166001600160a01b039485161790558583168252600190819052604080832082015494909316825291902001555b60028054806104ae57fe5b60008281526020808220830160001990810180546001600160a01b03191690559092019092556001600160a01b03841682526001908190526040822090810191909155600201805460ff191690555b506001919050565b60005460ff1615610553576040805162461bcd60e51b8152602060048201526013602482015272105b1c9958591e481a5b9a5d1a585b1a5e9959606a1b604482015290519081900360640190fd5b600080546001610100600160a81b031990911662f000001760ff1916179055565b6801bc16d674ec80000081565b601581565b3341146105c7576040805162461bcd60e51b815260206004820152600a6024820152694d696e6572206f6e6c7960b01b604482015290519081900360640190fd5b4360009081526004602052604090205460ff1615610620576040805162461bcd60e51b8152602060048201526011602482015270105b1c9958591e48191958dc99585cd959607a1b604482015290519081900360640190fd5b60005460ff16610666576040805162461bcd60e51b815260206004820152600c60248201526b139bdd081a5b9a5d081e595d60a21b604482015290519081900360640190fd5b8080438161067057fe5b06156106b6576040805162461bcd60e51b815260206004820152601060248201526f426c6f636b2065706f6368206f6e6c7960801b604482015290519081900360640190fd5b436000908152600460205260409020805460ff191660011790556002546106dc5761081b565b60005b6002548110156107f057601860300461ffff16600160006002848154811061070357fe5b60009182526020808320909101546001600160a01b0316835282019290925260400190205411156107af57601860300461ffff16600160006002848154811061074857fe5b60009182526020808320909101546001600160a01b0316835282019290925260400181205460028054939091039260019291908590811061078557fe5b60009182526020808320909101546001600160a01b031683528201929092526040019020556107e8565b600060016000600284815481106107c257fe5b60009182526020808320909101546001600160a01b031683528201929092526040019020555b6001016106df565b506040517f181d51be54e8e8eaca6eae0eab32d4162099236bd519e7238d015d0870db464190600090a15b5050565b606481565b60025490565b33411461086b576040805162461bcd60e51b815260206004820152600a6024820152694d696e6572206f6e6c7960b01b604482015290519081900360640190fd5b60005460ff166108b1576040805162461bcd60e51b815260206004820152600c60248201526b139bdd081a5b9a5d081e595d60a21b604482015290519081900360640190fd5b4360009081526003602052604090205460ff1615610909576040805162461bcd60e51b815260206004820152601060248201526f105b1c9958591e481c1d5b9a5cda195960821b604482015290519081900360640190fd5b436000908152600360209081526040808320805460ff191660019081179091556001600160a01b038516845290915290206002015460ff166109b357600280546001600160a01b0383166000818152600160208190526040822080820185905581850186557f405787fa12a823e0f2b7631cc41b3ba8828b3321ca811111fa75cd3aa3bb5ace90940180546001600160a01b031916841790559190529101805460ff191690911790555b6001600160a01b038116600090815260016020819052604090912080549091019081905560309006610a645760008054604080516340a141ff60e01b81526001600160a01b0385811660048301529151610100909304909116926340a141ff9260248084019382900301818387803b158015610a2e57600080fd5b505af1158015610a42573d6000803e3d6000fd5b5050506001600160a01b03821660009081526001602052604081205550610aed565b6001600160a01b03811660009081526001602052604090205460189006610aed5760008054604080516305dd095960e41b81526001600160a01b038581166004830152915161010090930490911692635dd095909260248084019382900301818387803b158015610ad457600080fd5b505af1158015610ae8573d6000803e3d6000fd5b505050505b6040805142815290516001600160a01b038316917f770e0cca42c35d00240986ce8d3ed438be04663c91dac6576b79537d7c180f1e919081900360200190a250565b60028181548110610b3c57fe5b6000918252602090912001546001600160a01b031690508156fea264697066735822122052b8aa6a58431c0776280a22e3a32268a3ddc4c3d95c8a2b8903751aca8167d664736f6c634300060c0033",
  "immutableReferences": {},
  "source": "// SPDX-License-Identifier: MIT\r\npragma solidity >=0.6.0 <0.8.0;\r\n\r\nimport \"./Params.sol\";\r\nimport \"./Validators.sol\";\r\n\r\ncontract Punish is Params {\r\n    uint16 public constant punishThreshold = 24;\r\n    uint16 public constant removeThreshold = 48;\r\n    uint16 public constant decreaseRate = 24;\r\n\r\n    struct PunishRecord {\r\n        uint256 missedBlocksCounter;\r\n        uint256 index;\r\n        bool exist;\r\n    }\r\n\r\n    Validators validators;\r\n\r\n    mapping(address => PunishRecord) punishRecords;\r\n    address[] public punishValidators;\r\n\r\n    mapping(uint256 => bool) punished;\r\n    mapping(uint256 => bool) decreased;\r\n\r\n    event LogDecreaseMissedBlocksCounter();\r\n    event LogPunishValidator(address indexed val, uint256 time);\r\n\r\n    modifier onlyNotPunished() {\r\n        require(!punished[block.number], \"Already punished\");\r\n        _;\r\n    }\r\n\r\n    modifier onlyNotDecreased() {\r\n        require(!decreased[block.number], \"Already decreased\");\r\n        _;\r\n    }\r\n\r\n    function initialize() external onlyNotInitialized {\r\n        validators = Validators(ValidatorContractAddr);\r\n        initialized = true;\r\n    }\r\n\r\n    function punish(address val)\r\n        external\r\n        onlyMiner\r\n        onlyInitialized\r\n        onlyNotPunished\r\n    {\r\n        punished[block.number] = true;\r\n        if (!punishRecords[val].exist) {\r\n            punishRecords[val].index = punishValidators.length;\r\n            punishValidators.push(val);\r\n            punishRecords[val].exist = true;\r\n        }\r\n        punishRecords[val].missedBlocksCounter++;\r\n\r\n        if (punishRecords[val].missedBlocksCounter % removeThreshold == 0) {\r\n            validators.removeValidator(val);\r\n            // reset validator's missed blocks counter\r\n            punishRecords[val].missedBlocksCounter = 0;\r\n        } else if (\r\n            punishRecords[val].missedBlocksCounter % punishThreshold == 0\r\n        ) {\r\n            validators.removeValidatorIncoming(val);\r\n        }\r\n\r\n        emit LogPunishValidator(val, block.timestamp);\r\n    }\r\n\r\n    function decreaseMissedBlocksCounter(uint256 epoch)\r\n        external\r\n        onlyMiner\r\n        onlyNotDecreased\r\n        onlyInitialized\r\n        onlyBlockEpoch(epoch)\r\n    {\r\n        decreased[block.number] = true;\r\n        if (punishValidators.length == 0) {\r\n            return;\r\n        }\r\n\r\n        for (uint256 i = 0; i < punishValidators.length; i++) {\r\n            if (\r\n                punishRecords[punishValidators[i]].missedBlocksCounter >\r\n                removeThreshold / decreaseRate\r\n            ) {\r\n                punishRecords[punishValidators[i]].missedBlocksCounter =\r\n                    punishRecords[punishValidators[i]].missedBlocksCounter -\r\n                    removeThreshold /\r\n                    decreaseRate;\r\n            } else {\r\n                punishRecords[punishValidators[i]].missedBlocksCounter = 0;\r\n            }\r\n        }\r\n\r\n        emit LogDecreaseMissedBlocksCounter();\r\n    }\r\n\r\n    // clean validator's punish record if one restake in\r\n    function cleanPunishRecord(address val)\r\n        public\r\n        onlyInitialized\r\n        onlyValidatorsContract\r\n        returns (bool)\r\n    {\r\n        if (punishRecords[val].missedBlocksCounter != 0) {\r\n            punishRecords[val].missedBlocksCounter = 0;\r\n        }\r\n\r\n        // remove it out of array if exist\r\n        if (punishRecords[val].exist && punishValidators.length > 0) {\r\n            if (punishRecords[val].index != punishValidators.length - 1) {\r\n                address uval = punishValidators[punishValidators.length - 1];\r\n                punishValidators[punishRecords[val].index] = uval;\r\n\r\n                punishRecords[uval].index = punishRecords[val].index;\r\n            }\r\n            punishValidators.pop();\r\n            punishRecords[val].index = 0;\r\n            punishRecords[val].exist = false;\r\n        }\r\n\r\n        return true;\r\n    }\r\n\r\n    function getPunishValidatorsLen() public view returns (uint256) {\r\n        return punishValidators.length;\r\n    }\r\n\r\n    function getPunishRecord(address val) public view returns (uint256) {\r\n        return punishRecords[val].missedBlocksCounter;\r\n    }\r\n}\r\n",
  "sourcePath": "/mnt/d/GitHub/asc-system-contracts/contracts/Punish.sol",
  "compiler": {
    "name": "solc",
    "version": "0.6.12+commit.27d51765.Emscripten.clang"
  },
  "schemaVersion": "3.4.2",
  "updatedAt": "2021-08-12T05:12:20.969Z",
  "devdoc": {
    "kind": "dev",
    "methods": {},
    "version": 1
  },
  "userdoc": {
    "kind": "user",
    "methods": {},
    "version": 1
  }
}