{
  "contractName": "Validators",
  "abi": [
    {
      "anonymous": false,
      "inputs": [
        {
          "indexed": true,
          "internalType": "address",
          "name": "val",
          "type": "address"
        },
        {
          "indexed": false,
          "internalType": "uint256",
          "name": "time",
          "type": "uint256"
        }
      ],
      "name": "LogAddToTopValidators",
      "type": "event"
    },
    {
      "anonymous": false,
      "inputs": [
        {
          "indexed": true,
          "internalType": "address",
          "name": "val",
          "type": "address"
        },
        {
          "indexed": true,
          "internalType": "address",
          "name": "fee",
          "type": "address"
        },
        {
          "indexed": false,
          "internalType": "uint256",
          "name": "time",
          "type": "uint256"
        }
      ],
      "name": "LogCreateValidator",
      "type": "event"
    },
    {
      "anonymous": false,
      "inputs": [
        {
          "indexed": true,
          "internalType": "address",
          "name": "coinbase",
          "type": "address"
        },
        {
          "indexed": false,
          "internalType": "uint256",
          "name": "blockReward",
          "type": "uint256"
        },
        {
          "indexed": false,
          "internalType": "uint256",
          "name": "time",
          "type": "uint256"
        }
      ],
      "name": "LogDistributeBlockReward",
      "type": "event"
    },
    {
      "anonymous": false,
      "inputs": [
        {
          "indexed": true,
          "internalType": "address",
          "name": "val",
          "type": "address"
        },
        {
          "indexed": true,
          "internalType": "address",
          "name": "fee",
          "type": "address"
        },
        {
          "indexed": false,
          "internalType": "uint256",
          "name": "time",
          "type": "uint256"
        }
      ],
      "name": "LogEditValidator",
      "type": "event"
    },
    {
      "anonymous": false,
      "inputs": [
        {
          "indexed": true,
          "internalType": "address",
          "name": "val",
          "type": "address"
        },
        {
          "indexed": false,
          "internalType": "uint256",
          "name": "time",
          "type": "uint256"
        }
      ],
      "name": "LogReactive",
      "type": "event"
    },
    {
      "anonymous": false,
      "inputs": [
        {
          "indexed": true,
          "internalType": "address",
          "name": "val",
          "type": "address"
        },
        {
          "indexed": false,
          "internalType": "uint256",
          "name": "time",
          "type": "uint256"
        }
      ],
      "name": "LogRemoveFromTopValidators",
      "type": "event"
    },
    {
      "anonymous": false,
      "inputs": [
        {
          "indexed": true,
          "internalType": "address",
          "name": "val",
          "type": "address"
        },
        {
          "indexed": false,
          "internalType": "uint256",
          "name": "amt",
          "type": "uint256"
        },
        {
          "indexed": false,
          "internalType": "uint256",
          "name": "time",
          "type": "uint256"
        }
      ],
      "name": "LogRemoveValidator",
      "type": "event"
    },
    {
      "anonymous": false,
      "inputs": [
        {
          "indexed": true,
          "internalType": "address",
          "name": "val",
          "type": "address"
        },
        {
          "indexed": false,
          "internalType": "uint256",
          "name": "amt",
          "type": "uint256"
        },
        {
          "indexed": false,
          "internalType": "uint256",
          "name": "time",
          "type": "uint256"
        }
      ],
      "name": "LogRemoveValidatorIncoming",
      "type": "event"
    },
    {
      "anonymous": false,
      "inputs": [
        {
          "indexed": true,
          "internalType": "address",
          "name": "staker",
          "type": "address"
        },
        {
          "indexed": true,
          "internalType": "address",
          "name": "val",
          "type": "address"
        },
        {
          "indexed": false,
          "internalType": "uint256",
          "name": "staking",
          "type": "uint256"
        },
        {
          "indexed": false,
          "internalType": "uint256",
          "name": "time",
          "type": "uint256"
        }
      ],
      "name": "LogStake",
      "type": "event"
    },
    {
      "anonymous": false,
      "inputs": [
        {
          "indexed": true,
          "internalType": "address",
          "name": "staker",
          "type": "address"
        },
        {
          "indexed": true,
          "internalType": "address",
          "name": "val",
          "type": "address"
        },
        {
          "indexed": false,
          "internalType": "uint256",
          "name": "amount",
          "type": "uint256"
        },
        {
          "indexed": false,
          "internalType": "uint256",
          "name": "time",
          "type": "uint256"
        }
      ],
      "name": "LogUnStake",
      "type": "event"
    },
    {
      "anonymous": false,
      "inputs": [
        {
          "indexed": false,
          "internalType": "address[]",
          "name": "newSet",
          "type": "address[]"
        }
      ],
      "name": "LogUpdateValidator",
      "type": "event"
    },
    {
      "anonymous": false,
      "inputs": [
        {
          "indexed": true,
          "internalType": "address",
          "name": "val",
          "type": "address"
        },
        {
          "indexed": true,
          "internalType": "address",
          "name": "fee",
          "type": "address"
        },
        {
          "indexed": false,
          "internalType": "uint256",
          "name": "amt",
          "type": "uint256"
        },
        {
          "indexed": false,
          "internalType": "uint256",
          "name": "time",
          "type": "uint256"
        }
      ],
      "name": "LogWithdrawProfits",
      "type": "event"
    },
    {
      "anonymous": false,
      "inputs": [
        {
          "indexed": true,
          "internalType": "address",
          "name": "staker",
          "type": "address"
        },
        {
          "indexed": true,
          "internalType": "address",
          "name": "val",
          "type": "address"
        },
        {
          "indexed": false,
          "internalType": "uint256",
          "name": "amount",
          "type": "uint256"
        },
        {
          "indexed": false,
          "internalType": "uint256",
          "name": "time",
          "type": "uint256"
        }
      ],
      "name": "LogWithdrawStaking",
      "type": "event"
    },
    {
      "inputs": [],
      "name": "MaxValidators",
      "outputs": [
        {
          "internalType": "uint16",
          "name": "",
          "type": "uint16"
        }
      ],
      "stateMutability": "view",
      "type": "function"
    },
    {
      "inputs": [],
      "name": "MinimalStakingCoin",
      "outputs": [
        {
          "internalType": "uint256",
          "name": "",
          "type": "uint256"
        }
      ],
      "stateMutability": "view",
      "type": "function"
    },
    {
      "inputs": [],
      "name": "ProposalContractAddr",
      "outputs": [
        {
          "internalType": "address",
          "name": "",
          "type": "address"
        }
      ],
      "stateMutability": "view",
      "type": "function"
    },
    {
      "inputs": [],
      "name": "PunishContractAddr",
      "outputs": [
        {
          "internalType": "address",
          "name": "",
          "type": "address"
        }
      ],
      "stateMutability": "view",
      "type": "function"
    },
    {
      "inputs": [],
      "name": "StakingLockPeriod",
      "outputs": [
        {
          "internalType": "uint64",
          "name": "",
          "type": "uint64"
        }
      ],
      "stateMutability": "view",
      "type": "function"
    },
    {
      "inputs": [],
      "name": "ValidatorContractAddr",
      "outputs": [
        {
          "internalType": "address",
          "name": "",
          "type": "address"
        }
      ],
      "stateMutability": "view",
      "type": "function"
    },
    {
      "inputs": [],
      "name": "WithdrawProfitPeriod",
      "outputs": [
        {
          "internalType": "uint64",
          "name": "",
          "type": "uint64"
        }
      ],
      "stateMutability": "view",
      "type": "function"
    },
    {
      "inputs": [
        {
          "internalType": "uint256",
          "name": "",
          "type": "uint256"
        }
      ],
      "name": "currentValidatorSet",
      "outputs": [
        {
          "internalType": "address",
          "name": "",
          "type": "address"
        }
      ],
      "stateMutability": "view",
      "type": "function"
    },
    {
      "inputs": [
        {
          "internalType": "uint256",
          "name": "",
          "type": "uint256"
        }
      ],
      "name": "highestValidatorsSet",
      "outputs": [
        {
          "internalType": "address",
          "name": "",
          "type": "address"
        }
      ],
      "stateMutability": "view",
      "type": "function"
    },
    {
      "inputs": [],
      "name": "initialized",
      "outputs": [
        {
          "internalType": "bool",
          "name": "",
          "type": "bool"
        }
      ],
      "stateMutability": "view",
      "type": "function"
    },
    {
      "inputs": [],
      "name": "totalJailed",
      "outputs": [
        {
          "internalType": "uint256",
          "name": "",
          "type": "uint256"
        }
      ],
      "stateMutability": "view",
      "type": "function"
    },
    {
      "inputs": [],
      "name": "totalStake",
      "outputs": [
        {
          "internalType": "uint256",
          "name": "",
          "type": "uint256"
        }
      ],
      "stateMutability": "view",
      "type": "function"
    },
    {
      "inputs": [
        {
          "internalType": "address[]",
          "name": "vals",
          "type": "address[]"
        }
      ],
      "name": "initialize",
      "outputs": [],
      "stateMutability": "nonpayable",
      "type": "function"
    },
    {
      "inputs": [
        {
          "internalType": "address",
          "name": "validator",
          "type": "address"
        }
      ],
      "name": "stake",
      "outputs": [
        {
          "internalType": "bool",
          "name": "",
          "type": "bool"
        }
      ],
      "stateMutability": "payable",
      "type": "function"
    },
    {
      "inputs": [
        {
          "internalType": "address payable",
          "name": "feeAddr",
          "type": "address"
        },
        {
          "internalType": "string",
          "name": "moniker",
          "type": "string"
        },
        {
          "internalType": "string",
          "name": "identity",
          "type": "string"
        },
        {
          "internalType": "string",
          "name": "website",
          "type": "string"
        },
        {
          "internalType": "string",
          "name": "email",
          "type": "string"
        },
        {
          "internalType": "string",
          "name": "details",
          "type": "string"
        }
      ],
      "name": "createOrEditValidator",
      "outputs": [
        {
          "internalType": "bool",
          "name": "",
          "type": "bool"
        }
      ],
      "stateMutability": "nonpayable",
      "type": "function"
    },
    {
      "inputs": [
        {
          "internalType": "address",
          "name": "validator",
          "type": "address"
        }
      ],
      "name": "tryReactive",
      "outputs": [
        {
          "internalType": "bool",
          "name": "",
          "type": "bool"
        }
      ],
      "stateMutability": "nonpayable",
      "type": "function"
    },
    {
      "inputs": [
        {
          "internalType": "address",
          "name": "validator",
          "type": "address"
        }
      ],
      "name": "unStake",
      "outputs": [
        {
          "internalType": "bool",
          "name": "",
          "type": "bool"
        }
      ],
      "stateMutability": "nonpayable",
      "type": "function"
    },
    {
      "inputs": [
        {
          "internalType": "address",
          "name": "validator",
          "type": "address"
        }
      ],
      "name": "withdrawStaking",
      "outputs": [
        {
          "internalType": "bool",
          "name": "",
          "type": "bool"
        }
      ],
      "stateMutability": "nonpayable",
      "type": "function"
    },
    {
      "inputs": [
        {
          "internalType": "address",
          "name": "validator",
          "type": "address"
        }
      ],
      "name": "withdrawProfits",
      "outputs": [
        {
          "internalType": "bool",
          "name": "",
          "type": "bool"
        }
      ],
      "stateMutability": "nonpayable",
      "type": "function"
    },
    {
      "inputs": [],
      "name": "distributeBlockReward",
      "outputs": [],
      "stateMutability": "payable",
      "type": "function"
    },
    {
      "inputs": [
        {
          "internalType": "uint256",
          "name": "epoch",
          "type": "uint256"
        }
      ],
      "name": "updateActiveValidatorSet",
      "outputs": [],
      "stateMutability": "nonpayable",
      "type": "function"
    },
    {
      "inputs": [
        {
          "internalType": "address",
          "name": "val",
          "type": "address"
        }
      ],
      "name": "removeValidator",
      "outputs": [],
      "stateMutability": "nonpayable",
      "type": "function"
    },
    {
      "inputs": [
        {
          "internalType": "address",
          "name": "val",
          "type": "address"
        }
      ],
      "name": "removeValidatorIncoming",
      "outputs": [],
      "stateMutability": "nonpayable",
      "type": "function"
    },
    {
      "inputs": [
        {
          "internalType": "address",
          "name": "val",
          "type": "address"
        }
      ],
      "name": "getValidatorDescription",
      "outputs": [
        {
          "internalType": "string",
          "name": "",
          "type": "string"
        },
        {
          "internalType": "string",
          "name": "",
          "type": "string"
        },
        {
          "internalType": "string",
          "name": "",
          "type": "string"
        },
        {
          "internalType": "string",
          "name": "",
          "type": "string"
        },
        {
          "internalType": "string",
          "name": "",
          "type": "string"
        }
      ],
      "stateMutability": "view",
      "type": "function"
    },
    {
      "inputs": [
        {
          "internalType": "address",
          "name": "val",
          "type": "address"
        }
      ],
      "name": "getValidatorInfo",
      "outputs": [
        {
          "internalType": "address payable",
          "name": "",
          "type": "address"
        },
        {
          "internalType": "enum Validators.Status",
          "name": "",
          "type": "uint8"
        },
        {
          "internalType": "uint256",
          "name": "",
          "type": "uint256"
        },
        {
          "internalType": "uint256",
          "name": "",
          "type": "uint256"
        },
        {
          "internalType": "uint256",
          "name": "",
          "type": "uint256"
        },
        {
          "internalType": "uint256",
          "name": "",
          "type": "uint256"
        },
        {
          "internalType": "address[]",
          "name": "",
          "type": "address[]"
        }
      ],
      "stateMutability": "view",
      "type": "function"
    },
    {
      "inputs": [
        {
          "internalType": "address",
          "name": "staker",
          "type": "address"
        },
        {
          "internalType": "address",
          "name": "val",
          "type": "address"
        }
      ],
      "name": "getStakingInfo",
      "outputs": [
        {
          "internalType": "uint256",
          "name": "",
          "type": "uint256"
        },
        {
          "internalType": "uint256",
          "name": "",
          "type": "uint256"
        },
        {
          "internalType": "uint256",
          "name": "",
          "type": "uint256"
        }
      ],
      "stateMutability": "view",
      "type": "function"
    },
    {
      "inputs": [],
      "name": "getActiveValidators",
      "outputs": [
        {
          "internalType": "address[]",
          "name": "",
          "type": "address[]"
        }
      ],
      "stateMutability": "view",
      "type": "function"
    },
    {
      "inputs": [],
      "name": "getTotalStakeOfActiveValidators",
      "outputs": [
        {
          "internalType": "uint256",
          "name": "total",
          "type": "uint256"
        },
        {
          "internalType": "uint256",
          "name": "len",
          "type": "uint256"
        }
      ],
      "stateMutability": "view",
      "type": "function"
    },
    {
      "inputs": [
        {
          "internalType": "address",
          "name": "who",
          "type": "address"
        }
      ],
      "name": "isActiveValidator",
      "outputs": [
        {
          "internalType": "bool",
          "name": "",
          "type": "bool"
        }
      ],
      "stateMutability": "view",
      "type": "function"
    },
    {
      "inputs": [
        {
          "internalType": "address",
          "name": "who",
          "type": "address"
        }
      ],
      "name": "isTopValidator",
      "outputs": [
        {
          "internalType": "bool",
          "name": "",
          "type": "bool"
        }
      ],
      "stateMutability": "view",
      "type": "function"
    },
    {
      "inputs": [],
      "name": "getTopValidators",
      "outputs": [
        {
          "internalType": "address[]",
          "name": "",
          "type": "address[]"
        }
      ],
      "stateMutability": "view",
      "type": "function"
    },
    {
      "inputs": [
        {
          "internalType": "string",
          "name": "moniker",
          "type": "string"
        },
        {
          "internalType": "string",
          "name": "identity",
          "type": "string"
        },
        {
          "internalType": "string",
          "name": "website",
          "type": "string"
        },
        {
          "internalType": "string",
          "name": "email",
          "type": "string"
        },
        {
          "internalType": "string",
          "name": "details",
          "type": "string"
        }
      ],
      "name": "validateDescription",
      "outputs": [
        {
          "internalType": "bool",
          "name": "",
          "type": "bool"
        }
      ],
      "stateMutability": "pure",
      "type": "function"
    }
  ],
  "bytecode": "0x608060405234801561001057600080fd5b5061481e806100206000396000f3fe6080604052600436106101e25760003560e01c806382bd3d9211610102578063afeea11511610095578063c967f90f11610064578063c967f90f14610e0e578063d6c0edad14610e3a578063db78dd2814610e42578063efd8d8e214610e42576101e2565b8063afeea11514610af1578063b6c8851914610b06578063be64569214610dcb578063c253c38414610de0576101e2565b80639de70258116100d15780639de7025814610603578063a224cee714610668578063a406fcb7146106e3578063a43569b3146108ae576101e2565b806382bd3d92146104c35780638a11d7c9146104f65780638b0e9f3f146105bb57806398e3b626146105d0576101e2565b806340550a1c1161017a5780635dd09590116101495780635dd09590146103f857806360ae528c1461042b5780636969a25c146104405780637f4f95fa1461046a576101e2565b806340550a1c1461034157806340a141ff146103745780634b3d500b146103a7578063534dacd6146103d1576101e2565b8063222d3b05116101b6578063222d3b05146102a057806326476204146102d3578063387e4948146102f95780633a061bd31461032c576101e2565b8062362a77146101e7578063056dd7861461022e578063158ef93e1461025a5780631b5e358c1461026f575b600080fd5b3480156101f357600080fd5b5061021a6004803603602081101561020a57600080fd5b50356001600160a01b0316610e74565b604080519115158252519081900360200190f35b34801561023a57600080fd5b506102586004803603602081101561025157600080fd5b50356110db565b005b34801561026657600080fd5b5061021a61132a565b34801561027b57600080fd5b50610284611333565b604080516001600160a01b039092168252519081900360200190f35b3480156102ac57600080fd5b5061021a600480360360208110156102c357600080fd5b50356001600160a01b0316611339565b61021a600480360360208110156102e957600080fd5b50356001600160a01b031661155c565b34801561030557600080fd5b5061021a6004803603602081101561031c57600080fd5b50356001600160a01b031661196f565b34801561033857600080fd5b50610284611db5565b34801561034d57600080fd5b5061021a6004803603602081101561036457600080fd5b50356001600160a01b0316611dbb565b34801561038057600080fd5b506102586004803603602081101561039757600080fd5b50356001600160a01b0316611e16565b3480156103b357600080fd5b50610284600480360360208110156103ca57600080fd5b5035611f5e565b3480156103dd57600080fd5b506103e6611f85565b60408051918252519081900360200190f35b34801561040457600080fd5b506102586004803603602081101561041b57600080fd5b50356001600160a01b0316611f8b565b34801561043757600080fd5b50610284611fe4565b34801561044c57600080fd5b506102846004803603602081101561046357600080fd5b5035611fea565b34801561047657600080fd5b506104a56004803603604081101561048d57600080fd5b506001600160a01b0381358116916020013516611ff7565b60408051938452602084019290925282820152519081900360600190f35b3480156104cf57600080fd5b5061021a600480360360208110156104e657600080fd5b50356001600160a01b0316612034565b34801561050257600080fd5b506105296004803603602081101561051957600080fd5b50356001600160a01b031661229b565b60405180886001600160a01b0316815260200187600481111561054857fe5b815260200186815260200185815260200184815260200183815260200180602001828103825283818151815260200191508051906020019060200280838360005b838110156105a1578181015183820152602001610589565b505050509050019850505050505050505060405180910390f35b3480156105c757600080fd5b506103e66126e1565b3480156105dc57600080fd5b5061021a600480360360208110156105f357600080fd5b50356001600160a01b03166126e7565b34801561060f57600080fd5b50610618612739565b60408051602080825283518183015283519192839290830191858101910280838360005b8381101561065457818101518382015260200161063c565b505050509050019250505060405180910390f35b34801561067457600080fd5b506102586004803603602081101561068b57600080fd5b810190602081018135600160201b8111156106a557600080fd5b8201836020820111156106b757600080fd5b803590602001918460208302840111600160201b831117156106d857600080fd5b50909250905061279b565b3480156106ef57600080fd5b5061021a600480360360c081101561070657600080fd5b6001600160a01b038235169190810190604081016020820135600160201b81111561073057600080fd5b82018360208201111561074257600080fd5b803590602001918460018302840111600160201b8311171561076357600080fd5b919390929091602081019035600160201b81111561078057600080fd5b82018360208201111561079257600080fd5b803590602001918460018302840111600160201b831117156107b357600080fd5b919390929091602081019035600160201b8111156107d057600080fd5b8201836020820111156107e257600080fd5b803590602001918460018302840111600160201b8311171561080357600080fd5b919390929091602081019035600160201b81111561082057600080fd5b82018360208201111561083257600080fd5b803590602001918460018302840111600160201b8311171561085357600080fd5b919390929091602081019035600160201b81111561087057600080fd5b82018360208201111561088257600080fd5b803590602001918460018302840111600160201b831117156108a357600080fd5b509092509050612afc565b3480156108ba57600080fd5b506108e1600480360360208110156108d157600080fd5b50356001600160a01b0316613108565b60405180806020018060200180602001806020018060200186810386528b818151815260200191508051906020019080838360005b8381101561092e578181015183820152602001610916565b50505050905090810190601f16801561095b5780820380516001836020036101000a031916815260200191505b5086810385528a5181528a516020918201918c019080838360005b8381101561098e578181015183820152602001610976565b50505050905090810190601f1680156109bb5780820380516001836020036101000a031916815260200191505b5086810384528951815289516020918201918b019080838360005b838110156109ee5781810151838201526020016109d6565b50505050905090810190601f168015610a1b5780820380516001836020036101000a031916815260200191505b5086810383528851815288516020918201918a019080838360005b83811015610a4e578181015183820152602001610a36565b50505050905090810190601f168015610a7b5780820380516001836020036101000a031916815260200191505b50868103825287518152875160209182019189019080838360005b83811015610aae578181015183820152602001610a96565b50505050905090810190601f168015610adb5780820380516001836020036101000a031916815260200191505b509a505050505050505050505060405180910390f35b348015610afd57600080fd5b5061061861353c565b348015610b1257600080fd5b5061021a600480360360a0811015610b2957600080fd5b810190602081018135600160201b811115610b4357600080fd5b820183602082011115610b5557600080fd5b803590602001918460018302840111600160201b83111715610b7657600080fd5b91908080601f0160208091040260200160405190810160405280939291908181526020018383808284376000920191909152509295949360208101935035915050600160201b811115610bc857600080fd5b820183602082011115610bda57600080fd5b803590602001918460018302840111600160201b83111715610bfb57600080fd5b91908080601f0160208091040260200160405190810160405280939291908181526020018383808284376000920191909152509295949360208101935035915050600160201b811115610c4d57600080fd5b820183602082011115610c5f57600080fd5b803590602001918460018302840111600160201b83111715610c8057600080fd5b91908080601f0160208091040260200160405190810160405280939291908181526020018383808284376000920191909152509295949360208101935035915050600160201b811115610cd257600080fd5b820183602082011115610ce457600080fd5b803590602001918460018302840111600160201b83111715610d0557600080fd5b91908080601f0160208091040260200160405190810160405280939291908181526020018383808284376000920191909152509295949360208101935035915050600160201b811115610d5757600080fd5b820183602082011115610d6957600080fd5b803590602001918460018302840111600160201b83111715610d8a57600080fd5b91908080601f01602080910402602001604051908101604052809392919081815260200183838082843760009201919091525092955061359c945050505050565b348015610dd757600080fd5b506103e6613741565b348015610dec57600080fd5b50610df561374e565b6040805192835260208301919091528051918290030190f35b348015610e1a57600080fd5b50610e23613763565b6040805161ffff9092168252519081900360200190f35b610258613768565b348015610e4e57600080fd5b50610e57613908565b6040805167ffffffffffffffff9092168252519081900360200190f35b600033816001600160a01b038416600090815260016020526040902054600160a01b900460ff166004811115610ea657fe5b1415610eef576040805162461bcd60e51b815260206004820152601360248201527215985b1a59185d1bdc881b9bdd08195e1a5cdd606a1b604482015290519081900360640190fd5b6001600160a01b03838116600090815260016020526040902054811690821614610f4a5760405162461bcd60e51b815260040180806020018281038252602e8152602001806147bb602e913960400191505060405180910390fd5b6001600160a01b0383166000908152600160205260409020600901544360649091011115610fa95760405162461bcd60e51b815260040180806020018281038252605c81526020018061462e605c913960600191505060405180910390fd5b6001600160a01b03831660009081526001602052604090206007015480611017576040805162461bcd60e51b815260206004820152601a60248201527f596f7520646f6e2774206861766520616e792070726f66697473000000000000604482015290519081900360640190fd5b6001600160a01b0384166000908152600160205260408120600781019190915543600990910155801561107c576040516001600160a01b0383169082156108fc029083906000818181858888f1935050505015801561107a573d6000803e3d6000fd5b505b816001600160a01b0316846001600160a01b03167f51a69b4502f660774c9339825c7b5adbf0b8622289134647e29728ec5d9b3bb98342604051808381526020018281526020019250505060405180910390a36001925050505b919050565b33411461111c576040805162461bcd60e51b815260206004820152600a6024820152694d696e6572206f6e6c7960b01b604482015290519081900360640190fd5b4360009081526009602090815260408083206001845290915290205460ff161561118d576040805162461bcd60e51b815260206004820152601a60248201527f56616c696461746f727320616c72656164792075706461746564000000000000604482015290519081900360640190fd5b60005460ff166111d3576040805162461bcd60e51b815260206004820152600c60248201526b139bdd081a5b9a5d081e595d60a21b604482015290519081900360640190fd5b808043816111dd57fe5b0615611223576040805162461bcd60e51b815260206004820152601060248201526f426c6f636b2065706f6368206f6e6c7960801b604482015290519081900360640190fd5b60045461126e576040805162461bcd60e51b815260206004820152601460248201527356616c696461746f722073657420656d7074792160601b604482015290519081900360640190fd5b43600090815260096020908152604080832060018085529252909120805460ff19169091179055600480546112a5916003916144b4565b507feacea8f3c22f06c0b18306bdb04d0a967255129e8ce0094debb0a0ff89d006b560036040518080602001828103825283818154815260200191508054801561131857602002820191906000526020600020905b81546001600160a01b031681526001909101906020018083116112fa575b50509250505060405180910390a15050565b60005460ff1681565b61f00181565b3360008181526002602090815260408083206001600160a01b0386168452825280832060019092528220549192918390600160a01b900460ff16600481111561137e57fe5b14156113c7576040805162461bcd60e51b81526020600482015260136024820152721d985b1a59185d1bdc881b9bdd08195e1a5cdd606a1b604482015290519081900360640190fd5b600181015461141d576040805162461bcd60e51b815260206004820152601960248201527f596f75206861766520746f20756e7374616b6520666972737400000000000000604482015290519081900360640190fd5b43606467ffffffffffffffff16826001015401111561146d5760405162461bcd60e51b815260040180806020018281038252602181526020018061468a6021913960400191505060405180910390fd5b80546114bb576040805162461bcd60e51b8152602060048201526018602482015277596f7520646f6e2774206861766520616e79207374616b6560401b604482015290519081900360640190fd5b80546000808355600183018190556040516001600160a01b0385169183156108fc02918491818181858888f193505050501580156114fd573d6000803e3d6000fd5b50846001600160a01b0316836001600160a01b03167fa70cd94070cd852339a76b32cf2d95a3c8f2a322269163d276071c1c149556198342604051808381526020018281526020019250505060405180910390a3506001949350505050565b6000805460ff166115a3576040805162461bcd60e51b815260206004820152600c60248201526b139bdd081a5b9a5d081e595d60a21b604482015290519081900360640190fd5b333460016001600160a01b038516600090815260016020526040902054600160a01b900460ff1660048111156115d557fe5b148061160e575060026001600160a01b038516600090815260016020526040902054600160a01b900460ff16600481111561160c57fe5b145b6116495760405162461bcd60e51b815260040180806020018281038252602d815260200180614712602d913960400191505060405180910390fd5b6007546040805163416259d960e11b81526001600160a01b038781166004830152915191909216916382c4b3b2916024808301926020929190829003018186803b15801561169657600080fd5b505afa1580156116aa573d6000803e3d6000fd5b505050506040513d60208110156116c057600080fd5b50516116fd5760405162461bcd60e51b81526004018080602001828103825260388152602001806147606038913960400191505060405180910390fd5b6001600160a01b03808316600090815260026020908152604080832093881683529290522060010154156117625760405162461bcd60e51b81526004018080602001828103825260228152602001806146f06022913960400191505060405180910390fd5b6001600160a01b0384166000908152600160208190526040909120908101546801bc16d674ec80000090611796908461390d565b10156117e9576040805162461bcd60e51b815260206004820152601860248201527f5374616b696e6720636f696e73206e6f7420656e6f7567680000000000000000604482015290519081900360640190fd5b6001600160a01b0380841660009081526002602090815260408083209389168352929052205461186257600a810180546001600160a01b038086166000818152600260208181526040808420958d1684529481529382200184905560018401855593845292200180546001600160a01b03191690911790555b6001810154611871908361390d565b600182015560028154600160a01b900460ff16600481111561188f57fe5b146118a657805460ff60a01b1916600160a11b1781555b6118b4858260010154613970565b6001600160a01b038084166000908152600260209081526040808320938916835292905220546118e4908361390d565b6001600160a01b038085166000908152600260209081526040808320938a1683529290522055600554611917908361390d565b6005556040805183815242602082015281516001600160a01b0380891693908716927fb9ba725934532316cffe10975da6eb25ad49c2d1c294d982c46c9f8d684ee075929081900390910190a3506001949350505050565b6000805460ff166119b6576040805162461bcd60e51b815260206004820152600c60248201526b139bdd081a5b9a5d081e595d60a21b604482015290519081900360640190fd5b3360006001600160a01b038416600090815260016020526040902054600160a01b900460ff1660048111156119e757fe5b1415611a30576040805162461bcd60e51b815260206004820152601360248201527215985b1a59185d1bdc881b9bdd08195e1a5cdd606a1b604482015290519081900360640190fd5b6001600160a01b03808216600090815260026020908152604080832093871683529281528282206001918290529290912082549183015490919015611aa65760405162461bcd60e51b81526004018080602001828103825260238152602001806147986023913960400191505060405180910390fd5b60008111611af6576040805162461bcd60e51b8152602060048201526018602482015277596f7520646f6e2774206861766520616e79207374616b6560401b604482015290519081900360640190fd5b6004546001148015611b0c5750611b0c866126e7565b8015611b2f575060018201546801bc16d674ec80000090611b2d9083613c0a565b105b15611b6b5760405162461bcd60e51b81526004018080602001828103825260458152602001806146ab6045913960600191505060405180910390fd5b600a820154600284015460001990910114611c4857600a820180546000198101908110611b9457fe5b9060005260206000200160009054906101000a90046001600160a01b031682600a01846002015481548110611bc557fe5b9060005260206000200160006101000a8154816001600160a01b0302191690836001600160a01b0316021790555082600201546002600084600a01866002015481548110611c0f57fe5b60009182526020808320909101546001600160a01b0390811684528382019490945260409283018220938b168252929092529020600201555b81600a01805480611c5557fe5b600082815260209020810160001990810180546001600160a01b03191690550190556001820154611c869082613c0a565b600180840191909155439084015560006002840155600554611ca89082613c0a565b60055560018201546801bc16d674ec8000001115611d5657815460ff60a01b1916600360a01b178255611cda86613c4c565b60075460408051630fb71c4360e41b81526001600160a01b0389811660048301529151919092169163fb71c4309160248083019260209291908290030181600087803b158015611d2957600080fd5b505af1158015611d3d573d6000803e3d6000fd5b505050506040513d6020811015611d5357600080fd5b50505b856001600160a01b0316846001600160a01b03167f1b1cb26a0e501aae1495d2137de6fad492b3c33d5f7dfa73db02e1e58ae6f3cf8342604051808381526020018281526020019250505060405180910390a350600195945050505050565b61f00081565b6000805b600354811015611e0d57826001600160a01b031660038281548110611de057fe5b6000918252602090912001546001600160a01b03161415611e055760019150506110d6565b600101611dbf565b50600092915050565b3361f00114611e63576040805162461bcd60e51b815260206004820152601460248201527350756e69736820636f6e7472616374206f6e6c7960601b604482015290519081900360640190fd5b6001600160a01b038116600090815260016020526040902060070154611e8882613d82565b60045460011015611f5a57611e9c82613e9a565b60075460408051630fb71c4360e41b81526001600160a01b0385811660048301529151919092169163fb71c4309160248083019260209291908290030181600087803b158015611eeb57600080fd5b505af1158015611eff573d6000803e3d6000fd5b505050506040513d6020811015611f1557600080fd5b50506040805182815242602082015281516001600160a01b038516927fa26de7ab324eac08c596549f421e5c8741213d237d2e9a2c9c0ebde0a7a849fe928290030190a25b5050565b60048181548110611f6b57fe5b6000918252602090912001546001600160a01b0316905081565b60065481565b3361f00114611fd8576040805162461bcd60e51b815260206004820152601460248201527350756e69736820636f6e7472616374206f6e6c7960601b604482015290519081900360640190fd5b611fe181613d82565b50565b61f00281565b60038181548110611f6b57fe5b6001600160a01b03918216600090815260026020818152604080842094909516835292909252919091208054600182015491909201549192909190565b60003361f00214612085576040805162461bcd60e51b815260206004820152601660248201527550726f706f73616c20636f6e7472616374206f6e6c7960501b604482015290519081900360640190fd5b60005460ff166120cb576040805162461bcd60e51b815260206004820152600c60248201526b139bdd081a5b9a5d081e595d60a21b604482015290519081900360640190fd5b60036001600160a01b038316600090815260016020526040902054600160a01b900460ff1660048111156120fb57fe5b14158015612137575060046001600160a01b038316600090815260016020526040902054600160a01b900460ff16600481111561213457fe5b14155b15612144575060016110d6565b60046001600160a01b038316600090815260016020526040902054600160a01b900460ff16600481111561217457fe5b141561223557600854604080516363e1d45160e01b81526001600160a01b038581166004830152915191909216916363e1d4519160248083019260209291908290030181600087803b1580156121c957600080fd5b505af11580156121dd573d6000803e3d6000fd5b505050506040513d60208110156121f357600080fd5b5051612235576040805162461bcd60e51b815260206004820152600c60248201526b18db19585b8819985a5b195960a21b604482015290519081900360640190fd5b6001600160a01b038216600081815260016020908152604091829020805460ff60a01b1916600160a01b179055815142815291517fd8b2c426ec1be69ca7583d26b1e893946e3227430d3ebc3bd64d9e1c469cb4009281900390910190a2506001919050565b60008060008060008060606122ae614504565b6001600160a01b038981166000908152600160209081526040918290208251610100810190935280549384168352919290830190600160a01b900460ff1660048111156122f757fe5b600481111561230257fe5b815260200160018201548152602001600282016040518060a0016040529081600082018054600181600116156101000203166002900480601f0160208091040260200160405190810160405280929190818152602001828054600181600116156101000203166002900480156123b95780601f1061238e576101008083540402835291602001916123b9565b820191906000526020600020905b81548152906001019060200180831161239c57829003601f168201915b50505050508152602001600182018054600181600116156101000203166002900480601f01602080910402602001604051908101604052809291908181526020018280546001816001161561010002031660029004801561245b5780601f106124305761010080835404028352916020019161245b565b820191906000526020600020905b81548152906001019060200180831161243e57829003601f168201915b5050509183525050600282810180546040805160206001841615610100026000190190931694909404601f810183900483028501830190915280845293810193908301828280156124ed5780601f106124c2576101008083540402835291602001916124ed565b820191906000526020600020905b8154815290600101906020018083116124d057829003601f168201915b505050918352505060038201805460408051602060026001851615610100026000190190941693909304601f81018490048402820184019092528181529382019392918301828280156125815780601f1061255657610100808354040283529160200191612581565b820191906000526020600020905b81548152906001019060200180831161256457829003601f168201915b505050918352505060048201805460408051602060026001851615610100026000190190941693909304601f81018490048402820184019092528181529382019392918301828280156126155780601f106125ea57610100808354040283529160200191612615565b820191906000526020600020905b8154815290600101906020018083116125f857829003601f168201915b5050505050815250508152602001600782015481526020016008820154815260200160098201548152602001600a820180548060200260200160405190810160405280929190818152602001828054801561269957602002820191906000526020600020905b81546001600160a01b0316815260019091019060200180831161267b575b505050505081525050905080600001518160200151826040015183608001518460a001518560c001518660e00151975097509750975097509750975050919395979092949650565b60055481565b6000805b600454811015611e0d57826001600160a01b03166004828154811061270c57fe5b6000918252602090912001546001600160a01b031614156127315760019150506110d6565b6001016126eb565b6060600380548060200260200160405190810160405280929190818152602001828054801561279157602002820191906000526020600020905b81546001600160a01b03168152600190910190602001808311612773575b5050505050905090565b60005460ff16156127e9576040805162461bcd60e51b8152602060048201526013602482015272105b1c9958591e481a5b9a5d1a585b1a5e9959606a1b604482015290519081900360640190fd5b600780546001600160a01b031990811661f002179091556008805490911661f00117905560005b81811015612aea57600083838381811061282657fe5b905060200201356001600160a01b03166001600160a01b03161415612892576040805162461bcd60e51b815260206004820152601960248201527f496e76616c69642076616c696461746f72206164647265737300000000000000604482015290519081900360640190fd5b6128b68383838181106128a157fe5b905060200201356001600160a01b0316611dbb565b6129055760038383838181106128c857fe5b835460018101855560009485526020948590200180546001600160a01b0319166001600160a01b0395909202939093013593909316929092179055505b61292983838381811061291457fe5b905060200201356001600160a01b03166126e7565b61297857600483838381811061293b57fe5b835460018101855560009485526020948590200180546001600160a01b0319166001600160a01b0395909202939093013593909316929092179055505b600060018185858581811061298957fe5b6001600160a01b0360209182029390930135831684528301939093526040909101600020541691909114159050612a3e578282828181106129c657fe5b905060200201356001600160a01b0316600160008585858181106129e657fe5b905060200201356001600160a01b03166001600160a01b03166001600160a01b0316815260200190815260200160002060000160006101000a8154816001600160a01b0302191690836001600160a01b031602179055505b600060016000858585818110612a5057fe5b602090810292909201356001600160a01b031683525081019190915260400160002054600160a01b900460ff166004811115612a8857fe5b1415612ae257600260016000858585818110612aa057fe5b602090810292909201356001600160a01b0316835250810191909152604001600020805460ff60a01b1916600160a01b836004811115612adc57fe5b02179055505b600101612810565b50506000805460ff1916600117905550565b6000805460ff16612b43576040805162461bcd60e51b815260206004820152600c60248201526b139bdd081a5b9a5d081e595d60a21b604482015290519081900360640190fd5b6001600160a01b038c16612b94576040805162461bcd60e51b8152602060048201526013602482015272496e76616c696420666565206164647265737360681b604482015290519081900360640190fd5b612ca38b8b8080601f01602080910402602001604051908101604052809392919081815260200183838082843760009201919091525050604080516020601f8f018190048102820181019092528d815292508d91508c908190840183828082843760009201919091525050604080516020601f8e018190048102820181019092528c815292508c91508b908190840183828082843760009201919091525050604080516020601f8d018190048102820181019092528b815292508b91508a908190840183828082843760009201919091525050604080516020601f8c018190048102820181019092528a815292508a915089908190840183828082843760009201919091525061359c92505050565b612cea576040805162461bcd60e51b815260206004820152601360248201527224b73b30b634b2103232b9b1b934b83a34b7b760691b604482015290519081900360640190fd5b336000818152600160205260408120548190600160a01b900460ff166004811115612d1157fe5b1415612e0f576007546040805163416259d960e11b81526001600160a01b038581166004830152915191909216916382c4b3b2916024808301926020929190829003018186803b158015612d6457600080fd5b505afa158015612d78573d6000803e3d6000fd5b505050506040513d6020811015612d8e57600080fd5b5051612de1576040805162461bcd60e51b815260206004820152601c60248201527f596f75206d75737420626520617574686f72697a656420666972737400000000604482015290519081900360640190fd5b506001600160a01b0381166000908152600160208190526040909120805460ff60a01b1916600160a01b1790555b6001600160a01b038281166000908152600160205260409020548116908f1614612e81578d60016000846001600160a01b03166001600160a01b0316815260200190815260200160002060000160006101000a8154816001600160a01b0302191690836001600160a01b031602179055505b6040518060a001604052808e8e8080601f016020809104026020016040519081016040528093929190818152602001838380828437600092019190915250505090825250604080516020601f8f018190048102820181019092528d815291810191908e908e9081908401838280828437600092019190915250505090825250604080516020601f8d018190048102820181019092528b815291810191908c908c9081908401838280828437600092019190915250505090825250604080516020601f8b0181900481028201810190925289815291810191908a908a9081908401838280828437600092019190915250505090825250604080516020601f89018190048102820181019092528781529181019190889088908190840183828082843760009201829052509390945250506001600160a01b03851681526001602090815260409091208351805160029092019350612fe1928492910190614550565b506020828101518051612ffa9260018501920190614550565b5060408201518051613016916002840191602090910190614550565b5060608201518051613032916003840191602090910190614550565b506080820151805161304e916004840191602090910190614550565b5090505080156130a8578d6001600160a01b0316826001600160a01b03167f887eec9d757b7247dd8e51198f9d1b8f27979bceb34bdcc1bffd4ec5ec736c22426040518082815260200191505060405180910390a36130f4565b8d6001600160a01b0316826001600160a01b03167fb8421f65501371f54d58de1937ff1e1ccdb76423ef6f84acea1814a0f6362ca0426040518082815260200191505060405180910390a35b5060019d9c50505050505050505050505050565b6060806060806060613118614504565b6001600160a01b038781166000908152600160209081526040918290208251610100810190935280549384168352919290830190600160a01b900460ff16600481111561316157fe5b600481111561316c57fe5b815260200160018201548152602001600282016040518060a0016040529081600082018054600181600116156101000203166002900480601f0160208091040260200160405190810160405280929190818152602001828054600181600116156101000203166002900480156132235780601f106131f857610100808354040283529160200191613223565b820191906000526020600020905b81548152906001019060200180831161320657829003601f168201915b50505050508152602001600182018054600181600116156101000203166002900480601f0160208091040260200160405190810160405280929190818152602001828054600181600116156101000203166002900480156132c55780601f1061329a576101008083540402835291602001916132c5565b820191906000526020600020905b8154815290600101906020018083116132a857829003601f168201915b5050509183525050600282810180546040805160206001841615610100026000190190931694909404601f810183900483028501830190915280845293810193908301828280156133575780601f1061332c57610100808354040283529160200191613357565b820191906000526020600020905b81548152906001019060200180831161333a57829003601f168201915b505050918352505060038201805460408051602060026001851615610100026000190190941693909304601f81018490048402820184019092528181529382019392918301828280156133eb5780601f106133c0576101008083540402835291602001916133eb565b820191906000526020600020905b8154815290600101906020018083116133ce57829003601f168201915b505050918352505060048201805460408051602060026001851615610100026000190190941693909304601f810184900484028201840190925281815293820193929183018282801561347f5780601f106134545761010080835404028352916020019161347f565b820191906000526020600020905b81548152906001019060200180831161346257829003601f168201915b5050505050815250508152602001600782015481526020016008820154815260200160098201548152602001600a820180548060200260200160405190810160405280929190818152602001828054801561350357602002820191906000526020600020905b81546001600160a01b031681526001909101906020018083116134e5575b5050509190925250505060609081015180516020820151604083015193830151608090930151919b909a50929850909650945092505050565b60606004805480602002602001604051908101604052809291908181526020018280548015612791576020028201919060005260206000209081546001600160a01b03168152600190910190602001808311612773575050505050905090565b60006046865111156135ee576040805162461bcd60e51b8152602060048201526016602482015275092dcecc2d8d2c840dadedcd2d6cae440d8cadccee8d60531b604482015290519081900360640190fd5b610bb885511115613646576040805162461bcd60e51b815260206004820152601760248201527f496e76616c6964206964656e74697479206c656e677468000000000000000000604482015290519081900360640190fd5b608c84511115613696576040805162461bcd60e51b8152602060048201526016602482015275092dcecc2d8d2c840eecac4e6d2e8ca40d8cadccee8d60531b604482015290519081900360640190fd5b608c835111156136e4576040805162461bcd60e51b8152602060048201526014602482015273092dcecc2d8d2c840cadac2d2d840d8cadccee8d60631b604482015290519081900360640190fd5b61011882511115613735576040805162461bcd60e51b8152602060048201526016602482015275092dcecc2d8d2c840c8cae8c2d2d8e640d8cadccee8d60531b604482015290519081900360640190fd5b50600195945050505050565b6801bc16d674ec80000081565b60008061375b6000613f07565b915091509091565b601581565b3341146137a9576040805162461bcd60e51b815260206004820152600a6024820152694d696e6572206f6e6c7960b01b604482015290519081900360640190fd5b43600090815260096020908152604080832083805290915290205460ff1615613819576040805162461bcd60e51b815260206004820152601960248201527f426c6f636b20697320616c726561647920726577617264656400000000000000604482015290519081900360640190fd5b60005460ff1661385f576040805162461bcd60e51b815260206004820152600c60248201526b139bdd081a5b9a5d081e595d60a21b604482015290519081900360640190fd5b4360009081526009602090815260408083208380528252808320805460ff1916600190811790915533808552925282205490913491600160a01b900460ff1660048111156138a957fe5b14156138b6575050613906565b6138c1816000613ff6565b6040805182815242602082015281516001600160a01b038516927f7dc4e5df59513708dca355b8706273a5df7b810a4cec8019f2a4b9bb166a1a04928290030190a250505b565b606481565b600082820183811015613967576040805162461bcd60e51b815260206004820152601b60248201527f536166654d6174683a206164646974696f6e206f766572666c6f770000000000604482015290519081900360640190fd5b90505b92915050565b60005b6004548110156139bd57826001600160a01b03166004828154811061399457fe5b6000918252602090912001546001600160a01b031614156139b55750611f5a565b600101613973565b5060045460151115613a5057600480546001810182556000919091527f8a35acfbc15ff81a39ae7d344fd709f28e8600b4aa8c65c6b64bfe7fe36bd19b0180546001600160a01b0384166001600160a01b031990911681179091556040805142815290517f1e3310ad6891b30e03874ec3d1422a6386c5da63d9faf595f5d99eeaf443b99a9181900360200190a2611f5a565b6000600160006004600081548110613a6457fe5b60009182526020808320909101546001600160a01b03168352820192909252604001812060019081015492505b600454811015613b2257826001600060048481548110613aad57fe5b60009182526020808320909101546001600160a01b031683528201929092526040019020600101541015613b1a576001600060048381548110613aec57fe5b60009182526020808320909101546001600160a01b0316835282019290925260400190206001015492509050805b600101613a91565b50818311613b31575050611f5a565b6040805142815290516001600160a01b038616917f1e3310ad6891b30e03874ec3d1422a6386c5da63d9faf595f5d99eeaf443b99a919081900360200190a260048181548110613b7d57fe5b600091825260209182902001546040805142815290516001600160a01b03909216927f7521e44559c870c316e84e60bc4785d9c034a8ab1d6acdce8134ac03f946c6ed92918290030190a28360048281548110613bd657fe5b9060005260206000200160006101000a8154816001600160a01b0302191690836001600160a01b0316021790555050505050565b600061396783836040518060400160405280601e81526020017f536166654d6174683a207375627472616374696f6e206f766572666c6f77000081525061431d565b60005b60045481108015613c6257506004546001105b15611f5a5760048181548110613c7457fe5b6000918252602090912001546001600160a01b0383811691161415613d7a57600454600019018114613d0757600480546000198101908110613cb257fe5b600091825260209091200154600480546001600160a01b039092169183908110613cd857fe5b9060005260206000200160006101000a8154816001600160a01b0302191690836001600160a01b031602179055505b6004805480613d1257fe5b6000828152602090819020820160001990810180546001600160a01b03191690559091019091556040805142815290516001600160a01b038516927f7521e44559c870c316e84e60bc4785d9c034a8ab1d6acdce8134ac03f946c6ed928290030190a2611f5a565b600101613c4f565b60006001600160a01b038216600090815260016020526040902054600160a01b900460ff166004811115613db257fe5b1480613dc15750600354600110155b15613dcb57611fe1565b6001600160a01b0381166000908152600160205260409020600701548015613e5457613df78183613ff6565b600654613e04908261390d565b6006556001600160a01b038216600090815260016020526040902060080154613e2d908261390d565b6001600160a01b038316600090815260016020526040812060088101929092556007909101555b6040805182815242602082015281516001600160a01b038516927fe294e9d73f8eee23e21b2e1567960625a6b5d339cb127b55d0d09473a9951235928290030190a25050565b60006001600160a01b038216600090815260016020526040902054600160a01b900460ff166004811115613eca57fe5b1415613ed557611fe1565b6001600160a01b0381166000908152600160205260409020805460ff60a01b1916600160a21b179055611fe181613c4c565b60008060005b600354811015613ff05760046001600060038481548110613f2a57fe5b60009182526020808320909101546001600160a01b0316835282019290925260400190205460ff600160a01b909104166004811115613f6557fe5b14158015613f97575060038181548110613f7b57fe5b6000918252602090912001546001600160a01b03858116911614155b15613fe857613fdf6001600060038481548110613fb057fe5b60009182526020808320909101546001600160a01b03168352820192909252604001902060010154849061390d565b92506001909101905b600101613f0d565b50915091565b8161400057611f5a565b60008061400c83613f07565b90925090508061401d575050611f5a565b6000808361418b57600061403187856143b4565b905061404761404082866143f6565b8890613c0a565b925060005b6003548110156141205760006003828154811061406557fe5b6000918252602090912001546001600160a01b0316905060046001600160a01b038216600090815260016020526040902054600160a01b900460ff1660048111156140ac57fe5b141580156140cc5750876001600160a01b0316816001600160a01b031614155b15614117576001600160a01b0381166000908152600160205260409020600701546140f7908461390d565b6001600160a01b0382166000908152600160205260409020600701559250825b5060010161404c565b5060008311801561413957506001600160a01b03821615155b15614181576001600160a01b038216600090815260016020526040902060070154614164908461390d565b6001600160a01b0383166000908152600160205260409020600701555b5050505050611f5a565b6000805b6003548110156142a7576000600382815481106141a857fe5b6000918252602090912001546001600160a01b0316905060046001600160a01b038216600090815260016020526040902054600160a01b900460ff1660048111156141ef57fe5b1415801561420f5750876001600160a01b0316816001600160a01b031614155b1561429e576001600160a01b038116600090815260016020819052604082200154614247908990614241908d906143f6565b906143b4565b9050614253848261390d565b6001600160a01b03831660009081526001602052604090206007015492955093508491614280908261390d565b6001600160a01b038316600090815260016020526040902060070155505b5060010161418f565b506142b28782613c0a565b92506000831180156142cc57506001600160a01b03821615155b15614314576001600160a01b0382166000908152600160205260409020600701546142f7908461390d565b6001600160a01b0383166000908152600160205260409020600701555b50505050505050565b600081848411156143ac5760405162461bcd60e51b81526004018080602001828103825283818151815260200191508051906020019080838360005b83811015614371578181015183820152602001614359565b50505050905090810190601f16801561439e5780820380516001836020036101000a031916815260200191505b509250505060405180910390fd5b505050900390565b600061396783836040518060400160405280601a81526020017f536166654d6174683a206469766973696f6e206279207a65726f00000000000081525061444f565b6000826144055750600061396a565b8282028284828161441257fe5b04146139675760405162461bcd60e51b815260040180806020018281038252602181526020018061473f6021913960400191505060405180910390fd5b6000818361449e5760405162461bcd60e51b8152602060048201818152835160248401528351909283926044909101919085019080838360008315614371578181015183820152602001614359565b5060008385816144aa57fe5b0495945050505050565b8280548282559060005260206000209081019282156144f45760005260206000209182015b828111156144f45782548255916001019190600101906144d9565b506145009291506145ca565b5090565b6040805161010081019091526000808252602082019081526020016000815260200161452e6145e9565b8152602001600081526020016000815260200160008152602001606081525090565b828054600181600116156101000203166002900490600052602060002090601f016020900481019282601f1061459157805160ff19168380011785556145be565b828001600101855582156145be579182015b828111156145be5782518255916020019190600101906145a3565b50614500929150614618565b5b808211156145005780546001600160a01b03191681556001016145cb565b6040518060a0016040528060608152602001606081526020016060815260200160608152602001606081525090565b5b80821115614500576000815560010161461956fe596f75206d757374207761697420656e6f75676820626c6f636b7320746f20776974686472617720796f75722070726f66697473206166746572206c6174657374207769746864726177206f6620746869732076616c696461746f72596f7572207374616b696e6720686176656e277420756e6c6f636b656420796574596f752063616e277420756e7374616b652c2076616c696461746f72206c6973742077696c6c20626520656d7074792061667465722074686973206f7065726174696f6e2143616e2774207374616b65207768656e20796f752061726520756e7374616b696e6743616e2774207374616b6520746f20612076616c696461746f7220696e2061626e6f726d616c20737461747573536166654d6174683a206d756c7469706c69636174696f6e206f766572666c6f775468652076616c696461746f7220796f752077616e7420746f207374616b65206d75737420626520617574686f72697a6564206669727374596f752061726520616c726561647920696e20756e7374616b696e6720737461747573596f7520617265206e6f742074686520666565207265636569766572206f6620746869732076616c696461746f72a2646970667358221220e82a6e6e61e1b22da1b5ddcef553725964ac381ba62535f69d7483f389d08aaf64736f6c634300060c0033",
  "immutableReferences": {},
  "source": "// SPDX-License-Identifier: MIT\r\npragma solidity >=0.6.0 <0.8.0;\r\n\r\nimport \"./Params.sol\";\r\nimport \"./Proposal.sol\";\r\nimport \"./Punish.sol\";\r\nimport \"./library/SafeMath.sol\";\r\n\r\ncontract Validators is Params {\r\n    using SafeMath for uint256;\r\n\r\n    enum Status {\r\n        // validator not exist, default status\r\n        NotExist,\r\n        // validator created\r\n        Created,\r\n        // anyone has staked for the validator\r\n        Staked,\r\n        // validator's staked coins < MinimalStakingCoin\r\n        UnStaked,\r\n        // validator is jailed by system(validator have to re-propose)\r\n        Jailed\r\n    }\r\n\r\n    struct Description {\r\n        string moniker;\r\n        string identity;\r\n        string website;\r\n        string email;\r\n        string details;\r\n    }\r\n\r\n    struct Validator {\r\n        address payable feeAddr;\r\n        Status status;\r\n        uint256 coins;\r\n        Description description;\r\n        uint256 Income;\r\n        uint256 totalJailed;\r\n        uint256 lastWithdrawProfitsBlock;\r\n        // Address list of user who has staked for this validator\r\n        address[] stakers;\r\n    }\r\n\r\n    struct StakingInfo {\r\n        uint256 coins;\r\n        // unStakeBlock != 0 means that you are un-staking your stake,\r\n        // so you can't stake or unStake\r\n        uint256 unStakeBlock;\r\n        // index of the staker list in validator\r\n        uint256 index;\r\n    }\r\n\r\n    mapping(address => Validator) validatorInfo;\r\n    // staker => validator => info\r\n    mapping(address => mapping(address => StakingInfo)) staked;\r\n    // current validator set used by chain\r\n    // only changed at block epoch\r\n    address[] public currentValidatorSet;\r\n    // highest validator set(dynamic changed)\r\n    address[] public highestValidatorsSet;\r\n    // total stake of all validators\r\n    uint256 public totalStake;\r\n    // total jailed amt\r\n    uint256 public totalJailed;\r\n\r\n    // System contracts\r\n    Proposal proposal;\r\n    Punish punish;\r\n\r\n    enum Operations {Distribute, UpdateValidators}\r\n    // Record the operations is done or not.\r\n    mapping(uint256 => mapping(uint8 => bool)) operationsDone;\r\n\r\n    event LogCreateValidator(\r\n        address indexed val,\r\n        address indexed fee,\r\n        uint256 time\r\n    );\r\n    event LogEditValidator(\r\n        address indexed val,\r\n        address indexed fee,\r\n        uint256 time\r\n    );\r\n    event LogReactive(address indexed val, uint256 time);\r\n    event LogAddToTopValidators(address indexed val, uint256 time);\r\n    event LogRemoveFromTopValidators(address indexed val, uint256 time);\r\n    event LogUnStake(\r\n        address indexed staker,\r\n        address indexed val,\r\n        uint256 amount,\r\n        uint256 time\r\n    );\r\n    event LogWithdrawStaking(\r\n        address indexed staker,\r\n        address indexed val,\r\n        uint256 amount,\r\n        uint256 time\r\n    );\r\n    event LogWithdrawProfits(\r\n        address indexed val,\r\n        address indexed fee,\r\n        uint256 amt,\r\n        uint256 time\r\n    );\r\n    event LogRemoveValidator(address indexed val, uint256 amt, uint256 time);\r\n    event LogRemoveValidatorIncoming(\r\n        address indexed val,\r\n        uint256 amt,\r\n        uint256 time\r\n    );\r\n    event LogDistributeBlockReward(\r\n        address indexed coinbase,\r\n        uint256 blockReward,\r\n        uint256 time\r\n    );\r\n    event LogUpdateValidator(address[] newSet);\r\n    event LogStake(\r\n        address indexed staker,\r\n        address indexed val,\r\n        uint256 staking,\r\n        uint256 time\r\n    );\r\n\r\n    modifier onlyNotRewarded() {\r\n        require(\r\n            operationsDone[block.number][uint8(Operations.Distribute)] == false,\r\n            \"Block is already rewarded\"\r\n        );\r\n        _;\r\n    }\r\n\r\n    modifier onlyNotUpdated() {\r\n        require(\r\n            operationsDone[block.number][uint8(Operations.UpdateValidators)] ==\r\n                false,\r\n            \"Validators already updated\"\r\n        );\r\n        _;\r\n    }\r\n\r\n    function initialize(address[] calldata vals) external onlyNotInitialized {\r\n        proposal = Proposal(ProposalContractAddr);\r\n        punish = Punish(PunishContractAddr);\r\n\r\n        for (uint256 i = 0; i < vals.length; i++) {\r\n            require(vals[i] != address(0), \"Invalid validator address\");\r\n\r\n            if (!isActiveValidator(vals[i])) {\r\n                currentValidatorSet.push(vals[i]);\r\n            }\r\n            if (!isTopValidator(vals[i])) {\r\n                highestValidatorsSet.push(vals[i]);\r\n            }\r\n            if (validatorInfo[vals[i]].feeAddr == address(0)) {\r\n                validatorInfo[vals[i]].feeAddr = payable(vals[i]);\r\n            }\r\n            // Important: NotExist validator can't get profits\r\n            if (validatorInfo[vals[i]].status == Status.NotExist) {\r\n                validatorInfo[vals[i]].status = Status.Staked;\r\n            }\r\n        }\r\n\r\n        initialized = true;\r\n    }\r\n\r\n    // stake for the validator\r\n    function stake(address validator)\r\n        external\r\n        payable\r\n        onlyInitialized\r\n        returns (bool)\r\n    {\r\n        address payable staker = msg.sender;\r\n        uint256 staking = msg.value;\r\n\r\n        require(\r\n            validatorInfo[validator].status == Status.Created ||\r\n                validatorInfo[validator].status == Status.Staked,\r\n            \"Can't stake to a validator in abnormal status\"\r\n        );\r\n        require(\r\n            proposal.pass(validator),\r\n            \"The validator you want to stake must be authorized first\"\r\n        );\r\n        require(\r\n            staked[staker][validator].unStakeBlock == 0,\r\n            \"Can't stake when you are unstaking\"\r\n        );\r\n\r\n        Validator storage valInfo = validatorInfo[validator];\r\n        // The staked coins of validator must >= MinimalStakingCoin\r\n        require(\r\n            valInfo.coins.add(staking) >= MinimalStakingCoin,\r\n            \"Staking coins not enough\"\r\n        );\r\n\r\n        // stake at first time to this valiadtor\r\n        if (staked[staker][validator].coins == 0) {\r\n            // add staker to validator's record list\r\n            staked[staker][validator].index = valInfo.stakers.length;\r\n            valInfo.stakers.push(staker);\r\n        }\r\n\r\n        valInfo.coins = valInfo.coins.add(staking);\r\n        if (valInfo.status != Status.Staked) {\r\n            valInfo.status = Status.Staked;\r\n        }\r\n        tryAddValidatorToHighestSet(validator, valInfo.coins);\r\n\r\n        // record staker's info\r\n        staked[staker][validator].coins = staked[staker][validator].coins.add(\r\n            staking\r\n        );\r\n        totalStake = totalStake.add(staking);\r\n\r\n        emit LogStake(staker, validator, staking, block.timestamp);\r\n        return true;\r\n    }\r\n\r\n    function createOrEditValidator(\r\n        address payable feeAddr,\r\n        string calldata moniker,\r\n        string calldata identity,\r\n        string calldata website,\r\n        string calldata email,\r\n        string calldata details\r\n    ) external onlyInitialized returns (bool) {\r\n        require(feeAddr != address(0), \"Invalid fee address\");\r\n        require(\r\n            validateDescription(moniker, identity, website, email, details),\r\n            \"Invalid description\"\r\n        );\r\n        address payable validator = msg.sender;\r\n        bool isCreate = false;\r\n        if (validatorInfo[validator].status == Status.NotExist) {\r\n            require(proposal.pass(validator), \"You must be authorized first\");\r\n            validatorInfo[validator].status = Status.Created;\r\n            isCreate = true;\r\n        }\r\n\r\n        if (validatorInfo[validator].feeAddr != feeAddr) {\r\n            validatorInfo[validator].feeAddr = feeAddr;\r\n        }\r\n\r\n        validatorInfo[validator].description = Description(\r\n            moniker,\r\n            identity,\r\n            website,\r\n            email,\r\n            details\r\n        );\r\n\r\n        if (isCreate) {\r\n            emit LogCreateValidator(validator, feeAddr, block.timestamp);\r\n        } else {\r\n            emit LogEditValidator(validator, feeAddr, block.timestamp);\r\n        }\r\n        return true;\r\n    }\r\n\r\n    function tryReactive(address validator)\r\n        external\r\n        onlyProposalContract\r\n        onlyInitialized\r\n        returns (bool)\r\n    {\r\n        // Only update validator status if UnStaked/Jailed\r\n        if (\r\n            validatorInfo[validator].status != Status.UnStaked &&\r\n            validatorInfo[validator].status != Status.Jailed\r\n        ) {\r\n            return true;\r\n        }\r\n\r\n        if (validatorInfo[validator].status == Status.Jailed) {\r\n            require(punish.cleanPunishRecord(validator), \"clean failed\");\r\n        }\r\n        validatorInfo[validator].status = Status.Created;\r\n\r\n        emit LogReactive(validator, block.timestamp);\r\n\r\n        return true;\r\n    }\r\n\r\n    function unStake(address validator)\r\n        external\r\n        onlyInitialized\r\n        returns (bool)\r\n    {\r\n        address staker = msg.sender;\r\n        require(\r\n            validatorInfo[validator].status != Status.NotExist,\r\n            \"Validator not exist\"\r\n        );\r\n\r\n        StakingInfo storage stakingInfo = staked[staker][validator];\r\n        Validator storage valInfo = validatorInfo[validator];\r\n        uint256 unStakeAmount = stakingInfo.coins;\r\n\r\n        require(\r\n            stakingInfo.unStakeBlock == 0,\r\n            \"You are already in unstaking status\"\r\n        );\r\n        require(unStakeAmount > 0, \"You don't have any stake\");\r\n        // You can't unstake if the validator is the only one top validator and\r\n        // this unstake operation will cause staked coins of validator < MinimalStakingCoin\r\n        require(\r\n            !(highestValidatorsSet.length == 1 &&\r\n                isTopValidator(validator) &&\r\n                valInfo.coins.sub(unStakeAmount) < MinimalStakingCoin),\r\n            \"You can't unstake, validator list will be empty after this operation!\"\r\n        );\r\n\r\n        // try to remove this staker out of validator stakers list.\r\n        if (stakingInfo.index != valInfo.stakers.length - 1) {\r\n            valInfo.stakers[stakingInfo.index] = valInfo.stakers[valInfo\r\n                .stakers\r\n                .length - 1];\r\n            // update index of the changed staker.\r\n            staked[valInfo.stakers[stakingInfo.index]][validator]\r\n                .index = stakingInfo.index;\r\n        }\r\n        valInfo.stakers.pop();\r\n\r\n        valInfo.coins = valInfo.coins.sub(unStakeAmount);\r\n        stakingInfo.unStakeBlock = block.number;\r\n        stakingInfo.index = 0;\r\n        totalStake = totalStake.sub(unStakeAmount);\r\n\r\n        // try to remove it out of active validator set if validator's coins < MinimalStakingCoin\r\n        if (valInfo.coins < MinimalStakingCoin) {\r\n            valInfo.status = Status.UnStaked;\r\n            // it's ok if validator not in highest set\r\n            tryRemoveValidatorInHighestSet(validator);\r\n\r\n            // call proposal contract to set unpass.\r\n            // validator have to repropose to rebecome a validator.\r\n            proposal.setUnPassed(validator);\r\n        }\r\n\r\n        emit LogUnStake(staker, validator, unStakeAmount, block.timestamp);\r\n        return true;\r\n    }\r\n\r\n    function withdrawStaking(address validator) external returns (bool) {\r\n        address payable staker = payable(msg.sender);\r\n        StakingInfo storage stakingInfo = staked[staker][validator];\r\n        require(\r\n            validatorInfo[validator].status != Status.NotExist,\r\n            \"validator not exist\"\r\n        );\r\n        require(stakingInfo.unStakeBlock != 0, \"You have to unstake first\");\r\n        // Ensure staker can withdraw his staking back\r\n        require(\r\n            stakingInfo.unStakeBlock + StakingLockPeriod <= block.number,\r\n            \"Your staking haven't unlocked yet\"\r\n        );\r\n        require(stakingInfo.coins > 0, \"You don't have any stake\");\r\n\r\n        uint256 staking = stakingInfo.coins;\r\n        stakingInfo.coins = 0;\r\n        stakingInfo.unStakeBlock = 0;\r\n\r\n        // send stake back to staker\r\n        staker.transfer(staking);\r\n\r\n        emit LogWithdrawStaking(staker, validator, staking, block.timestamp);\r\n        return true;\r\n    }\r\n\r\n    // feeAddr can withdraw profits of it's validator\r\n    function withdrawProfits(address validator) external returns (bool) {\r\n        address payable feeAddr = payable(msg.sender);\r\n        require(\r\n            validatorInfo[validator].status != Status.NotExist,\r\n            \"Validator not exist\"\r\n        );\r\n        require(\r\n            validatorInfo[validator].feeAddr == feeAddr,\r\n            \"You are not the fee receiver of this validator\"\r\n        );\r\n        require(\r\n            validatorInfo[validator].lastWithdrawProfitsBlock +\r\n                WithdrawProfitPeriod <=\r\n                block.number,\r\n            \"You must wait enough blocks to withdraw your profits after latest withdraw of this validator\"\r\n        );\r\n        uint256 Income = validatorInfo[validator].Income;\r\n        require(Income > 0, \"You don't have any profits\");\r\n\r\n        // update info\r\n        validatorInfo[validator].Income = 0;\r\n        validatorInfo[validator].lastWithdrawProfitsBlock = block.number;\r\n\r\n        // send profits to fee address\r\n        if (Income > 0) {\r\n            feeAddr.transfer(Income);\r\n        }\r\n\r\n        emit LogWithdrawProfits(\r\n            validator,\r\n            feeAddr,\r\n            Income,\r\n            block.timestamp\r\n        );\r\n\r\n        return true;\r\n    }\r\n\r\n    // distributeBlockReward distributes block reward to all active validators\r\n    function distributeBlockReward()\r\n        external\r\n        payable\r\n        onlyMiner\r\n        onlyNotRewarded\r\n        onlyInitialized\r\n    {\r\n        operationsDone[block.number][uint8(Operations.Distribute)] = true;\r\n        address val = msg.sender;\r\n        uint256 amt = msg.value;\r\n\r\n        // never reach this\r\n        if (validatorInfo[val].status == Status.NotExist) {\r\n            return;\r\n        }\r\n\r\n        // Jailed validator can't get profits.\r\n        addProfitsToActiveValidatorsByStakePercentExcept(amt, address(0));\r\n\r\n        emit LogDistributeBlockReward(val, amt, block.timestamp);\r\n    }\r\n\r\n    function updateActiveValidatorSet(uint256 epoch)\r\n        public\r\n        onlyMiner\r\n        onlyNotUpdated\r\n        onlyInitialized\r\n        onlyBlockEpoch(epoch)\r\n    {\r\n        require(highestValidatorsSet.length > 0, \"Validator set empty!\");\r\n\r\n        operationsDone[block.number][uint8(Operations.UpdateValidators)] = true;\r\n\r\n        currentValidatorSet = highestValidatorsSet;\r\n\r\n        emit LogUpdateValidator(currentValidatorSet);\r\n    }\r\n\r\n    function removeValidator(address val) external onlyPunishContract {\r\n        uint256 amt = validatorInfo[val].Income;\r\n\r\n        tryRemoveValidatorIncoming(val);\r\n\r\n        // remove the validator out of active set\r\n        // Note: the jailed validator may in active set if there is only one validator exists\r\n        if (highestValidatorsSet.length > 1) {\r\n            tryJailValidator(val);\r\n\r\n            // call proposal contract to set unpass.\r\n            // you have to repropose to be a validator.\r\n            proposal.setUnPassed(val);\r\n            emit LogRemoveValidator(val, amt, block.timestamp);\r\n        }\r\n    }\r\n\r\n    function removeValidatorIncoming(address val) external onlyPunishContract {\r\n        tryRemoveValidatorIncoming(val);\r\n    }\r\n\r\n    function getValidatorDescription(address val)\r\n        public\r\n        view\r\n        returns (\r\n            string memory,\r\n            string memory,\r\n            string memory,\r\n            string memory,\r\n            string memory\r\n        )\r\n    {\r\n        Validator memory v = validatorInfo[val];\r\n\r\n        return (\r\n            v.description.moniker,\r\n            v.description.identity,\r\n            v.description.website,\r\n            v.description.email,\r\n            v.description.details\r\n        );\r\n    }\r\n\r\n    function getValidatorInfo(address val)\r\n        public\r\n        view\r\n        returns (\r\n            address payable,\r\n            Status,\r\n            uint256,\r\n            uint256,\r\n            uint256,\r\n            uint256,\r\n            address[] memory\r\n        )\r\n    {\r\n        Validator memory v = validatorInfo[val];\r\n\r\n        return (\r\n            v.feeAddr,\r\n            v.status,\r\n            v.coins,\r\n            v.Income,\r\n            v.totalJailed,\r\n            v.lastWithdrawProfitsBlock,\r\n            v.stakers\r\n        );\r\n    }\r\n\r\n    function getStakingInfo(address staker, address val)\r\n        public\r\n        view\r\n        returns (\r\n            uint256,\r\n            uint256,\r\n            uint256\r\n        )\r\n    {\r\n        return (\r\n            staked[staker][val].coins,\r\n            staked[staker][val].unStakeBlock,\r\n            staked[staker][val].index\r\n        );\r\n    }\r\n\r\n    function getActiveValidators() public view returns (address[] memory) {\r\n        return currentValidatorSet;\r\n    }\r\n\r\n    function getTotalStakeOfActiveValidators()\r\n        public\r\n        view\r\n        returns (uint256 total, uint256 len)\r\n    {\r\n        return getTotalStakeOfActiveValidatorsExcept(address(0));\r\n    }\r\n\r\n    function getTotalStakeOfActiveValidatorsExcept(address val)\r\n        private\r\n        view\r\n        returns (uint256 total, uint256 len)\r\n    {\r\n        for (uint256 i = 0; i < currentValidatorSet.length; i++) {\r\n            if (\r\n                validatorInfo[currentValidatorSet[i]].status != Status.Jailed &&\r\n                val != currentValidatorSet[i]\r\n            ) {\r\n                total = total.add(validatorInfo[currentValidatorSet[i]].coins);\r\n                len++;\r\n            }\r\n        }\r\n\r\n        return (total, len);\r\n    }\r\n\r\n    function isActiveValidator(address who) public view returns (bool) {\r\n        for (uint256 i = 0; i < currentValidatorSet.length; i++) {\r\n            if (currentValidatorSet[i] == who) {\r\n                return true;\r\n            }\r\n        }\r\n\r\n        return false;\r\n    }\r\n\r\n    function isTopValidator(address who) public view returns (bool) {\r\n        for (uint256 i = 0; i < highestValidatorsSet.length; i++) {\r\n            if (highestValidatorsSet[i] == who) {\r\n                return true;\r\n            }\r\n        }\r\n\r\n        return false;\r\n    }\r\n\r\n    function getTopValidators() public view returns (address[] memory) {\r\n        return highestValidatorsSet;\r\n    }\r\n\r\n    function validateDescription(\r\n        string memory moniker,\r\n        string memory identity,\r\n        string memory website,\r\n        string memory email,\r\n        string memory details\r\n    ) public pure returns (bool) {\r\n        require(bytes(moniker).length <= 70, \"Invalid moniker length\");\r\n        require(bytes(identity).length <= 3000, \"Invalid identity length\");\r\n        require(bytes(website).length <= 140, \"Invalid website length\");\r\n        require(bytes(email).length <= 140, \"Invalid email length\");\r\n        require(bytes(details).length <= 280, \"Invalid details length\");\r\n\r\n        return true;\r\n    }\r\n\r\n    function tryAddValidatorToHighestSet(address val, uint256 staking)\r\n        internal\r\n    {\r\n        // do nothing if you are already in highestValidatorsSet set\r\n        for (uint256 i = 0; i < highestValidatorsSet.length; i++) {\r\n            if (highestValidatorsSet[i] == val) {\r\n                return;\r\n            }\r\n        }\r\n\r\n        if (highestValidatorsSet.length < MaxValidators) {\r\n            highestValidatorsSet.push(val);\r\n            emit LogAddToTopValidators(val, block.timestamp);\r\n            return;\r\n        }\r\n\r\n        // find lowest validator index in current validator set\r\n        uint256 lowest = validatorInfo[highestValidatorsSet[0]].coins;\r\n        uint256 lowestIndex = 0;\r\n        for (uint256 i = 1; i < highestValidatorsSet.length; i++) {\r\n            if (validatorInfo[highestValidatorsSet[i]].coins < lowest) {\r\n                lowest = validatorInfo[highestValidatorsSet[i]].coins;\r\n                lowestIndex = i;\r\n            }\r\n        }\r\n\r\n        // do nothing if staking amount isn't bigger than current lowest\r\n        if (staking <= lowest) {\r\n            return;\r\n        }\r\n\r\n        // replace the lowest validator\r\n        emit LogAddToTopValidators(val, block.timestamp);\r\n        emit LogRemoveFromTopValidators(\r\n            highestValidatorsSet[lowestIndex],\r\n            block.timestamp\r\n        );\r\n        highestValidatorsSet[lowestIndex] = val;\r\n    }\r\n\r\n    function tryRemoveValidatorIncoming(address val) private {\r\n        // do nothing if validator not exist(impossible)\r\n        if (\r\n            validatorInfo[val].status == Status.NotExist ||\r\n            currentValidatorSet.length <= 1\r\n        ) {\r\n            return;\r\n        }\r\n\r\n        uint256 amt = validatorInfo[val].Income;\r\n        if (amt > 0) {\r\n            addProfitsToActiveValidatorsByStakePercentExcept(amt, val);\r\n            // for display purpose\r\n            totalJailed = totalJailed.add(amt);\r\n            validatorInfo[val].totalJailed = validatorInfo[val]\r\n                .totalJailed\r\n                .add(amt);\r\n\r\n            validatorInfo[val].Income = 0;\r\n        }\r\n\r\n        emit LogRemoveValidatorIncoming(val, amt, block.timestamp);\r\n    }\r\n\r\n    // add profits to all validators by stake percent except the punished validator or jailed validator\r\n    function addProfitsToActiveValidatorsByStakePercentExcept(\r\n        uint256 totalReward,\r\n        address punishedVal\r\n    ) private {\r\n        if (totalReward == 0) {\r\n            return;\r\n        }\r\n\r\n        uint256 totalRewardStake;\r\n        uint256 rewardValsLen;\r\n        (\r\n            totalRewardStake,\r\n            rewardValsLen\r\n        ) = getTotalStakeOfActiveValidatorsExcept(punishedVal);\r\n\r\n        if (rewardValsLen == 0) {\r\n            return;\r\n        }\r\n\r\n        uint256 remain;\r\n        address last;\r\n\r\n        // no stake(at genesis period)\r\n        if (totalRewardStake == 0) {\r\n            uint256 per = totalReward.div(rewardValsLen);\r\n            remain = totalReward.sub(per.mul(rewardValsLen));\r\n\r\n            for (uint256 i = 0; i < currentValidatorSet.length; i++) {\r\n                address val = currentValidatorSet[i];\r\n                if (\r\n                    validatorInfo[val].status != Status.Jailed &&\r\n                    val != punishedVal\r\n                ) {\r\n                    validatorInfo[val].Income = validatorInfo[val]\r\n                        .Income\r\n                        .add(per);\r\n\r\n                    last = val;\r\n                }\r\n            }\r\n\r\n            if (remain > 0 && last != address(0)) {\r\n                validatorInfo[last].Income = validatorInfo[last]\r\n                    .Income\r\n                    .add(remain);\r\n            }\r\n            return;\r\n        }\r\n\r\n        uint256 added;\r\n        for (uint256 i = 0; i < currentValidatorSet.length; i++) {\r\n            address val = currentValidatorSet[i];\r\n            if (\r\n                validatorInfo[val].status != Status.Jailed && val != punishedVal\r\n            ) {\r\n                uint256 reward = totalReward.mul(validatorInfo[val].coins).div(\r\n                    totalRewardStake\r\n                );\r\n                added = added.add(reward);\r\n                last = val;\r\n                validatorInfo[val].Income = validatorInfo[val]\r\n                    .Income\r\n                    .add(reward);\r\n            }\r\n        }\r\n\r\n        remain = totalReward.sub(added);\r\n        if (remain > 0 && last != address(0)) {\r\n            validatorInfo[last].Income = validatorInfo[last].Income.add(\r\n                remain\r\n            );\r\n        }\r\n    }\r\n\r\n    function tryJailValidator(address val) private {\r\n        // do nothing if validator not exist\r\n        if (validatorInfo[val].status == Status.NotExist) {\r\n            return;\r\n        }\r\n\r\n        // set validator status to jailed\r\n        validatorInfo[val].status = Status.Jailed;\r\n\r\n        // try to remove if it's in active validator set\r\n        tryRemoveValidatorInHighestSet(val);\r\n    }\r\n\r\n    function tryRemoveValidatorInHighestSet(address val) private {\r\n        for (\r\n            uint256 i = 0;\r\n            // ensure at least one validator exist\r\n            i < highestValidatorsSet.length && highestValidatorsSet.length > 1;\r\n            i++\r\n        ) {\r\n            if (val == highestValidatorsSet[i]) {\r\n                // remove it\r\n                if (i != highestValidatorsSet.length - 1) {\r\n                    highestValidatorsSet[i] = highestValidatorsSet[highestValidatorsSet\r\n                        .length - 1];\r\n                }\r\n\r\n                highestValidatorsSet.pop();\r\n                emit LogRemoveFromTopValidators(val, block.timestamp);\r\n\r\n                break;\r\n            }\r\n        }\r\n    }\r\n}\r\n",
  "sourcePath": "/mnt/d/GitHub/asc-system-contracts/contracts/Validators.sol",
  "compiler": {
    "name": "solc",
    "version": "0.6.12+commit.27d51765.Emscripten.clang"
  },
  "schemaVersion": "3.4.2",
  "updatedAt": "2021-08-12T05:12:21.003Z",
  "devdoc": {
    "kind": "dev",
    "methods": {},
    "version": 1
  },
  "userdoc": {
    "kind": "user",
    "methods": {},
    "version": 1
  }
}